:020000040800F2
:20400000C874012015420008B946020851CF01087D3E0208DD6701085D5D020800000000DC
:20402000000000000000000000000000454E02086176010800000000C3460208AD540208E5
:204040002F4200082F4200082F4200082F4200082F4200082F420008D57F01082F420008B4
:20406000E37F01082F420008F37F01082F4200082F4200082F4200087D6E01082F42000809
:204080002F4200082F4200082F420008000000000000000000000000000000002F4200083C
:2040A0002F4200082F4200082F4200080D5502082F4200082F420008195502082F42000846
:2040C0002F4200082F4200082F4200082F4200082F4200082F4200082F4200080000000091
:2040E000DB7F01082F4200082F420008000000000000000000000000000000002F420008F2
:20410000000000002F420008255502082F4200080000000000000000000000000000000029
:204120002F4200082F4200082F4200082F4200082F42000800000000000000000000000022
:204140000000000000000000000000002F4200082F4200082F4200082F4200082F42000802
:204160002F4200082F4200080000000000000000000000000000000000000000000000004D
:20418000000000002F42000800000000000000002F4200084B1C012B98BF70472DE9F00383
:2041A000911C9B08B1F80480B1F802900A8831F802CC8044814402448444D9F80070D8F816
:2041C00000601568DCF80040C9F80060C8F80070CCF800501460D9F80470D8F804605568DF
:2041E000DCF80440C9F80460C8F80470CCF80450546008315B1ED5D1BDE8F0037047DFF804
:2042000010D00EF0C5FD00000048004789A80208C87401200648804706480047FEE7FEE763
:20422000FEE7FEE7FEE7FEE7FEE7FEE7FEE7FEE7B1540208FF41000870B5FF4905462DED2D
:20424000068B0026FD480A68824206D0FD4AFC4B13601268824235D10860EE61AE616E617C
:204260002E61AE626E622E6295ED018A05F110049FEDF59BB5EEC08AF1EE10FA24D0288892
:204280000EF0CAFA53EC192B0EF046FA41EC1A0B18EE100A0EF005FB53EC1A2B0EF023F98D
:2042A00041EC1A0B9FEDEA0A28EE000A10EE100A0EF0F7FA53EC1A2B0EF02EFA0EF0D8FA8B
:2042C000A08302E00E60FEE7A68395ED028AB5EEC08AF1EE10FA1ED02E8830460EF09CFACB
:2042E00041EC1A0B18EE100A0EF0DBFA53EC192B0EF0A0F953EC1A2B0EF0F5F841EC180BA0
:2043000030020EF089FA53EC182B0EF005FA0EF0AFFAE08300E0E68328884FF47A71B0FB8F
:20432000F1F02084BDEC068B70BD2DE9FF4FC249C24A97B00968914200D0FEE71A991031E2
:2043400000260A6907924A6905928A690492D1E901420D6809921A9AD1F80CE08B8B9289B1
:204360000693CB8B0E931DE10778BA4B13F807C0A444A3F58074CDF844C014F807C005EB59
:204380004C09A3F5007515F807A0875C13F8078008EB090CCDF82CC010F812C014F807806C
:2043A00015F8079013F80C700AEB480807EB080B14F80C8015F80C70039702EB42071397ED
:2043C00010F807C009EB4809039F13F80C8008EB090A14F80C8007EB480915F80C7003978C
:2043E00010F822C013F80C8008EB0907129714F80C80039F07EB480915F80C70039702EB03
:20440000820710F807C0039F13F80C80C14414F80C8007EB4807029715F80C700397139FBF
:2044200010F817C0029F13F80C804744149714F80C80039F07EB480715F80C80C2EBC20CA0
:2044400010F80CC013F80C301F44139714F80C3015F80C50DDF82CC008EB4304CCEBCC0302
:20446000DDF844C003EB4303CCEBCC0703EB870CCBEB0B17BC440AEB8A070CEB470C129FCB
:2044800007EB47080CEB480C09EB4907BC44149FBC440CEB0E07DDF844C001970CEBCC0752
:2044A000BF0007EB4303CBEBCB0C0CEB0B1703EB47030AEB4A0703EB0713C9EBC90C03EB62
:2044C00008130CEB091703EB470C149FC7EBC703139F03EB43030CEB430C07EBC7070CEB57
:2044E000870C099F0CEB070EDDF82CC00BEB4B07BC440AEB4A074FEA4708129F07EB87076D
:2045000008EB4707BC44C9EB091767443B44139FC7EBC70703EB87030993019F0E9BA7F531
:2045200000378BB1079B03EB070C059B0597ACEB0303DDF838C003FB0CF34FEAE37C03EB3C
:204540001C631B1207931F46069B7BB1DDF810C0C3F5807303FB0CF3DDF818C00CFB0733A8
:20456000DF1703EB17631B121F460493199B5F43002F01DD083700E0083FFB1707EB137361
:20458000354F1B11BB4202DB7F42BB4200DD3B461A9FDDF860C000EBC200FF897743761C46
:2045A0002CF817300B8CB3423FF7DEAEC1E900540998C1E9020E07980861059848610498FF
:2045C000886198B21BB0BDE8F08F2DE9FF4F1A491A4A98B00968914200D0FEE71B99103158
:2045E00000250A6902924A6906928A690592D1E9006296468A680892CA6807921B9A948999
:204600008A8B0992CA8B15925AE10778114A12F807C00CEB0E031693A2F5807313F807C0FB
:2046200006EB4C08A2F5007610F804C016F8079012F80C70474411E094090020CDB5E8B5D9
:20464000C2A507F4003002401F85EB51B81E194000008043980B00204480FFFF0A9713F883
:204660000C8010F8147009EB480816F80C9012F807C0C444CDF82CC013F8078009EB4808D4
:2046800016F8079004EB4407129710F807C012F80C7047440F9713F80C8016F80CA010F8B3
:2046A00024C009EB480904EB840712F80C8016F80CE0C14413F80C800E9710F807C00AEBC2
:2046C000480A129F12F80C8008EB0A0B13F80C800EEB480A16F80CE010F817C012F80C80E8
:2046E00016F80C70C24413F80C800497C4EBC4070EEB480E10F807C012F80C8008EB0E07C2
:20470000139713F80C80049F07EB480E16F80C70049710F834C012F80C8008EB0E07149703
:2047200013F80C80049F16F80CC007EB480804EBC407C75DD25DF65D9044DA5D169B0CEB10
:20474000420EC3EB03120A9F02EB420207EBC703DDF82CC002EB8302CCEBCC030F9F02EB5C
:204760008302C7EBC70303EB43031A44C9EB09131A440BEB8B0302EB43020AEB4A03139FCE
:2047800002EB430207EB4703149F1A44D319079A0A9F1A44169B019203EBC302C2EB8312CD
:2047A000C7EB87131A440CEB8C0303EB8C130F9F1A4407EBC70303EB87131A44C9EB0913BE
:2047C00003EB83031A44CBEB0B1303EB83031A440AEBCA0303EB8A13139F1A4407EB870388
:2047E00003EB8713149F1A44C7EB87131A4408EBC803C3EB88131344089A0A9F1A440792D6
:204800000CEB4C023A440F9F07EB47035B0009EB890703EB47031A44CBEB0B131344CAEB96
:20482000CA0202EB4202139F1A44C7EBC703149F02EB830207EBC70302EB8302C8EB0813CE
:2048400003EB43031A440892019A159BA2F57A3263B1029B9F18069BFB1A159F06927B4376
:20486000DF1703EB17631B1202931A46099B5BB1C3F58077059B5F43099B03FB0272D31717
:2048800002EB1362121205921A9B5A43002A01DD103200E0103AD31702EBD362FE4B52117D
:2048A0009A4202DB5B429A4200DD1A461B9B199FDB896B436D1C27F813200E9A00EB420059
:2048C0000A8CAA423FF7A1AEC1E9006E089888600798C8600298086106984861059888619A
:2048E00090B21CB06FE62DE9FF4FEC49EC4A97B00968914200D0FEE710330027D3E90461BB
:204900000891D3E90142D3F8009099690692DA6809929A8B0592DA8B1192059AC2F5807221
:20492000CDF83020DD4A90F800C0121D12F80C50254402F58074109514F80C8002F5007561
:2049400009EB480890F8089015F80CA012F809C0E044CDF82C8014F8098015F809B090F8EF
:2049600010900AEB480A12F8098015F809C008EB0A0E14F80980CDF810C090F818900BEB8C
:20498000480A12F8098008EB0A0B14F809800CEB480A15F809C0CDF810C090F8209012F89F
:2049A000098008EB0A0CCDF848C014F80980DDF810C00CEB480A15F809C0CDF810C090F822
:2049C000289012F80980C24414F809800CEB480CCDF80CC015F809C0CDF810C090F8309062
:2049E000DDF80CC012F80980C444CDF850C014F80980DDF810C015F809900CEB480890F8F7
:204A000038C012F80C204244139214F80C20DDF82C8009EB420415F80C90109DC8EBC80277
:204A200002EB4202C5EBC50502EB8505CEEB0E1C65440BEB8B0C05EB4C05DDF848C00CEB26
:204A40004C0805EB48050AEB4A0C6544DDF850C0AC44099D65440195109DDDF850C005EB95
:204A6000C505AD0005EB4202CEEBCE0505EB0E1502EB45020BEB4B0502EB0512CAEBCA05EA
:204A800002EB081205EB0A1502EB4502CCEBCC0505EB450502EB450C139ADDF82C8002EBB1
:204AA000C2020CEB820C069A624409920EEB4E0242440BEB4B0C4FEA4C08DDF848C00CEB4F
:204AC0008C0C08EB4C0C6244CAEB0A1C62441544139AC2EBC20205EB82020692019D089A09
:204AE000A5F500352E44B21A119E08957243D61702EB166216120C9A4A43059901FB06213A
:204B0000CA1701EB1261199A09124A43002A01DD083200E0083AD51702EB15725E4D121168
:204B2000AA4202DB6D42AA4200DD2A4607EB470C189D40307F1C25F82C20102FFFF6F2AE82
:204B4000C3E90094069898600998C3E903060898C3E90501102035E52DE9FF4F4F49504AF7
:204B600098B00968914200D0FEE71B99103100250A6902924A6906928A690592D1E90062E2
:204B800096468A680892CA6807921B9A94898A8B0992CA8B159250E1404A0778121D12F8F1
:204BA00007C00CEB0E03169302F5807313F807C006EB4C0802F5007610F804C016F807909E
:204BC00012F80C7047440A9713F80C8010F8147009EB480816F80C9012F807C0C444CDF874
:204BE0002CC013F8078009EB480816F8079004EB4407129710F807C012F80C7047440F97E5
:204C000013F80C8016F80CA010F824C009EB480904EB840712F80C8016F80CE0C14413F8F8
:204C20000C800E9710F807C00AEB480A129F12F80C8008EB0A0B13F80C800EEB480A16F8EE
:204C40000CE010F817C012F80C8016F80C70C24413F80C800497C4EBC4070EEB480E10F860
:204C600007C012F80C8008EB0E07139713F80C80049F07EB480E16F80C70049710F834C082
:204C800012F80C8008EB0E07149713F80C80049F07EB480806E000004480FFFF94090020EA
:204CA000CDB5E8B504EBC40716F80CC0C75DD25DF65D9044DA5D169B0CEB420EC3EB0312D5
:204CC0000A9F02EB420207EBC703DDF82CC002EB8302CCEBCC030F9F02EB8302C7EBC703E9
:204CE00003EB43031A44C9EB09131A440BEB8B0302EB43020AEB4A03139F02EB430207EB26
:204D00004703149F1A44D319079A0A9F1A44169B019203EBC302C2EB8312C7EB87131A44C1
:204D20000CEB8C0303EB8C130F9F1A4407EBC70303EB87131A44C9EB091303EB83031A4410
:204D4000CBEB0B1303EB83031A440AEBCA0303EB8A13139F1A4407EB870303EB8713149F99
:204D60001A44C7EB87131A4408EBC803C3EB88131344089A0A9F1A4407920CEB4C023A44C8
:204D80000F9F07EB47035B0009EB890703EB47031A44CBEB0B131344CAEBCA0202EB4202D7
:204DA000139F1A44C7EBC703149F02EB830207EBC70302EB8302C8EB081303EB43031A44B4
:204DC0000892019A159BA2F57A3263B1029B9F18069BFB1A159F06927B43DF1703EB176325
:204DE0001B1202931A46099B5BB1C3F58077059B5F43099B03FB0272D31702EB136212126A
:204E000005921A9B5A43002A01DD103200E0103AD31702EBD362FF4B52119A4202DB5B4226
:204E20009A4200DD1A461B9B199FDB896B436D1C27F813200E9A00EB42000A8CAA423FF771
:204E4000ABAEC1E9006E089888600798C86002980861069848610598886190B241E52DE944
:204E6000FF4FED49ED4A9DB00968914200D0FEE72099103100260A6907924A6905928A69C8
:204E80000492D1E901320C680892CA680692209A95898A8B0992CA8B199226E2DE4A077880
:204EA000121D05EB850E12F807C09C4402F58073CDF868C013F807C010F8058004EB4C0C12
:204EC00002F5007414F8079012F8087067440A9710F8157013F808C014F808A012F8078051
:204EE00009EB4C0908EB090CCDF82CC005EB450913F8078010F809C00AEB480814F807A017
:204F000012F80C7047440E9713F80C800AEB480714F80CA010F825C012F80C8047440F9794
:204F200013F80C7014F80CB010F80EC00AEB470A12F80C8008EB0A07109713F80C800BEB38
:204F4000480A14F80CB010F819C012F80C8008EB0A07119713F80C800BEB480A14F80CB06D
:204F6000C5EBC50CCDF86CC010F80CC012F80C8008EB0A07129713F80C8014F80CA010F851
:204F800035C00BEB480712F80C804744139713F80C700AEB470714F80CA005EBC50C10F8C1
:204FA0000CC012F80C804744149713F80C7014F80CB010F81EC00AEB470A12F80C8008EB55
:204FC0000A07159713F80C8005EB45070BEB480A07EBC50714F80CB010F807C012F80C800E
:204FE000C24413F80C800BEB480714F80CB010F829C012F80C8014F80C9008EB070E13F8C5
:205000000C7005EB850C0CEBC50C0BEB470710F80CC012F80C8008EB070B13F80C7014F885
:205020000C80DDF86CC0CDF80C8009EB470710F81CC012F80C8008EB070913F80C70DDF877
:205040000C8014F80CC008EB4708C5EB0517C75DD25DE45D9044DA5D0A9F0CEB4203C7EBA8
:205060000712DDF868C0C2EBC202CCEB0C1702EBC702DDF82CC05B271CFB07F73A440E9F96
:20508000C7EBC70C0CEB471702EB47020F9F07EB471702EB4702109F07EBC70CCCEB871703
:2050A0003A44119FC7EB071707EB47073A44129F07EBC70702EB8702139FC7EBC70702EB2E
:2050C0008702149FC7EBC70707EB47073A44159FC7EB07173A440AEB8A0702EB47020EEB9F
:2050E0004E0702EB47020BEB4B073A4402EB0907069A3A440192DDF868C00A9F0CEB0C12F6
:20510000C7EB0717D20007EB8707DDF82CC002EB47020CEB0C1707EB8C1702EB47020E9FE4
:205120004FF02B0C17FB0CF702EB87020F9FC7EB071707EB470702EB8702109FC7EB47177B
:2051400007EB470702EB4702119FC7EB471C0CEB871702EB4702129F07EB470702EB8712D2
:20516000139F07EB470702EB8712149FC7EB471C0CEB871702EB4702159F4FF02B0CC7EB48
:20518000471707EB470702EB4702CAEB0A1707EB470702EB87021EFB0CF702EB87020BEB27
:2051A0000B1C0CEB8B1702EB4702C9EB091707EB870702EB470708EB081207EBC207089A00
:2051C0003A440692DDE90A7C0CEB4C0207EB020C0E9F07EB47020F9F520007EB870702EBD3
:2051E0004702109F9444C7EB0712119F6244C7EBC70707EB47073A44129FC7EBC70702EB62
:205200008702139F07EBC70702EB8702149FC7EB071705E04480FFFF94090020CDB5E8B517
:2052200007EB47073A44159F07EBC70CCCEB87173A440AEB4A1702EB470CCEEBCE0202EB58
:205240004E120CEB420C5B221BFB02F2C9EB09176244C7EBC7071744C8EB081207EBC2024A
:205260000892019A199FA2F580128FB1079F07EB020C059FACEB0707DDF864C0059207FB57
:205280000CF74FEAE77C07EB1C673F1207973A46099F77B1DDF810C0C7F5807707FB0CF75E
:2052A000DDF824C00CFB0272D71702EB1762121204921F9F7A43002A01DD803200E0803ADD
:2052C000D71702EB1762FF4F1212BA4202DB7F42BA4200DD3A46209FDDF878C000EB051049
:2052E000FF897743761C2CF817200A8CB2423FF7D5ADC1E90043089888600698C860079863
:205300000861059848610498886190B221B0BDE8F08F2DE9FF4FEC49EC4A9DB009689142C2
:2053200000D0FEE72099103100260A6907924A6905928A690492D1E901320C680892CA688C
:205340000692209A95898A8B0992CA8B199228E20778DF4A05EB850E12F807C09C44A2F5B0
:205360008073CDF868C013F807C010F8058004EB4C0CA2F5007414F8079012F808706744CC
:205380000A9710F8157013F808C014F808A012F8078009EB4C0908EB090CCDF82CC005EBD5
:2053A000450913F8078010F809C00AEB480814F807A012F80C7047440E9713F80C800AEB02
:2053C000480714F80CA010F825C012F80C8047440F9713F80C7014F80CB010F80EC00AEBF8
:2053E000470A12F80C8008EB0A07109713F80C800BEB480A14F80CB010F819C012F80C80FD
:2054000008EB0A07119713F80C800BEB480A14F80CB0C5EBC50CCDF86CC010F80CC012F8E9
:205420000C8008EB0A07129713F80C8014F80CA010F835C00BEB480712F80C8047441397D7
:2054400013F80C700AEB470714F80CA005EBC50C10F80CC012F80C804744149713F80C70E2
:2054600014F80CB010F81EC00AEB470A12F80C8008EB0A07159713F80C8005EB45070BEB29
:20548000480A07EBC50714F80CB010F807C012F80C80C24413F80C800BEB480714F80CB025
:2054A00010F829C012F80C8014F80C9008EB070E13F80C7005EB850C0CEBC50C0BEB4707A1
:2054C00010F80CC012F80C8008EB070B13F80C7014F80C80DDF86CC0CDF80C8009EB4707AA
:2054E00010F81CC012F80C8008EB070913F80C70DDF80C8014F80CC008EB4708C5EB051761
:20550000C75DD25DE45D9044DA5D0A9F0CEB4203C7EB0712DDF868C0C2EBC202CCEB0C17F4
:2055200002EBC702DDF82CC05B271CFB07F73A440E9FC7EBC70C0CEB471702EB47020F9F74
:2055400007EB471702EB4702109F07EBC70CCCEB87173A44119FC7EB071707EB47073A4440
:20556000129F07EBC70702EB8702139FC7EBC70702EB8702149FC7EBC70707EB47073A44AB
:20558000159FC7EB07173A440AEB8A0702EB47020EEB4E0702EB47020BEB4B073A4402EB16
:2055A0000907069A3A440192DDF868C00A9F0CEB0C12C7EB0717D20007EB8707DDF82CC08C
:2055C00002EB47020CEB0C1707EB8C1702EB47020E9F4FF02B0C17FB0CF702EB87020F9F54
:2055E000C7EB071707EB470702EB8702109FC7EB471707EB470702EB4702119FC7EB471C2B
:205600000CEB871702EB4702129F07EB470702EB8712139F07EB470702EB8712149FC7EB6B
:20562000471C0CEB871702EB4702159F4FF02B0CC7EB471707EB470702EB4702CAEB0A17B6
:2056400007EB470702EB87021EFB0CF702EB87020BEB0B1C0CEB8B1702EB4702C9EB091742
:2056600007EB870702EB470708EB081207EBC207089A3A440692DDE90A7C0CEB4C0207EB6C
:20568000020C0E9F07EB47020F9F520007EB870702EB4702109F9444C7EB0712119F6244B6
:2056A000C7EBC70707EB47073A44129FC7EBC70702EB8702139F07EBC70702EB8702149F6A
:2056C00008E000004480FFFF94090020CDB5E8B5980B0020C7EB071707EB47073A44159F3F
:2056E00007EBC70CCCEB87173A440AEB4A1702EB470CCEEBCE0202EB4E120CEB420C5B22E4
:205700001BFB02F2C9EB09176244C7EBC7071744C8EB081207EBC2020892019A199FA2F523
:2057200080128FB1079F07EB020C059FACEB0707DDF864C0059207FB0CF74FEAE77C07EB85
:205740001C673F1207973A46099F77B1DDF810C0C7F5807707FB0CF7DDF824C00CFB0272F6
:20576000D71702EB1762121204921F9F7A43002A01DD803200E0803AD71702EB1762124F97
:205780001212BA4202DB7F42BA4200DD3A46209FDDF878C000EB0510FF897743761C2CF82E
:2057A00017200A8CB2423FF7D3ADC1E90043089888600698C860079808610598486104984D
:2057C000886190B2A2E500004480FFFF0000000010B5D0ED010A90ED000A20EEA01A20EE6B
:2057E000000AD0ED020A60EEA00A31EE000A30EE800A10EE100A0DF054F841EC100B22F052
:205800009FF951EC100B0DF08FF800EE100A10BD90ED001AD0ED010A90ED022A90ED030AAD
:2058200061EE011A61EE202A21EE023A21EE004A20EEA01A60EE823A60EE804A62EE020A7B
:2058400022EE005A20EE002A08469FEDFE0A042281ED000A80ED010A80ED020A0830521E8D
:20586000F8D131EEC10A72EE855A72EEC52A30EE600A30EE020A81ED000AB0EE000A65EEC2
:20588000805A62EE802AC1ED035A73EE645A65EE805AC1ED065AC1ED012A71EE612A72EEAC
:2058A000E02A72EE822AC1ED042A73EE842A62EE802AC1ED072A73EE242A62EE802AC1EDB7
:2058C000022A73EEC42A22EE800A81ED050AB1EE610A30EE410A30EE200A30EE020A81EDE3
:2058E000080A704710B483B04FF0010CADF800C09DF8002000216FF00043012A19BF4FF07D
:20590000FF32CDE90032D04ACDE900129DED000BCE4A82ED2A0BADF800C09DF80040012CD4
:2059200008BFCB4B1366E4B2CA4BADF800C0012C14BFCDE90031CDE900139DED000B4FF07D
:20594000FF4382ED260B9365ADF800C09DF800C0C14BBCF1010F14BFCDE90031CDE9001367
:205960009DED000BBD4B82ED280BD36580F8CE1880F8CD1880F8CC1803B010BC70472DE94D
:20598000F0410D462DED048BB7EE009A044690ED000AD0ED040A30EE090A30EE600AD0ED89
:2059A000080A30EE608ADFEDA79AB5EEC08AF1EE10FAD8BFB0EE698A94ED070AD4ED050A60
:2059C00030EE600AB5EEC00AF1EE10FA34BF4FF0FF384FF0010894ED020AD4ED060A30EEBC
:2059E000600AB5EEC00AF1EE10FA34BF4FF0FF37012794ED030AD4ED010A30EE600AB5EED2
:205A0000C00AF1EE10FA34BF4FF0FF36012618EE100A0CF046FF41EC100B22F091F851ECC4
:205A2000100B0CF081FF00EE100AF6EE008A60EE280A00EE108AB8EEC00A20EE800A85EDD7
:205A4000000A94ED000AD4ED040A39EE400A30EE200AD4ED080A30EE600AB5EEC00AF1EE82
:205A600010FA04D9B4EE400AF1EE10FA01D0B0EE690A10EE100A0CF014FF41EC100B22F007
:205A80005FF851EC100B0CF04FFF00EE100A60EE280A00EE107AB8EEC00A20EE800A85ED93
:205AA000010A94ED000AD4ED040A39EE400A30EE600AD4ED080A30EE200AB5EEC00AF1EE21
:205AC00010FA04D9B4EE400AF1EE10FA01D0B0EE690A10EE100A0CF0E4FE41EC100B22F0D8
:205AE0002FF851EC100B0CF01FFF00EE100A60EE280A00EE106AB8EEC00A20EE800A85EDA3
:205B0000020A94ED000AD4ED040A30EE090A30EE200AD4ED080A30EE200AB5EEC00AF1EE3F
:205B200010FA07D9B4EE400AF1EE10FA08BFB0EE408A01D0B0EE698A18EE100A0CF0B1FE4A
:205B400041EC100B21F0FCFF51EC100B0CF0ECFE00EE100A20EE280A85ED030ABDEC048BB4
:205B6000BDE8F0812DE9F04F3D4F07EB011407EB021607EB031907EB0015B6F90620B4F986
:205B800008A0B6F90830B4F90680B4F90AB0B5F90870B6F90A40B5F906C0B9F90610B9F9CF
:205BA0000800B9F90A60B5F90A50A7EB030EABEB04090EFB09FBA4EB050EAAEB030A0EFB19
:205BC0000ABB00EE10BA01EE902AA5EB040BA8EB0205B8EEC01A0BFB05F8F8EEE11AA2EB75
:205BE0000C0B0BFB098821EE212A00EE108A01EE903AACEB020CF8EEC00AF8EEE11A0CFB1F
:205C00000AF8A3EB070C0CFB058C00EEA12A00EE10CA01EE904A0022B8EEC00AF8EEE11A8C
:205C20004FF0010C42F210740E4D00EE212AF1EE421A21EE012A00EEA02A00EE002A12EE87
:205C4000103A11E0000000000000F8FF980C00200000C0FF0000F07F0000F0FF000080FFB2
:205C600088530020A0860100FD4FDFF8F883DFF8F893DFF8F8A3B3F19F4F70DABCEEC22A1E
:205C800012EE103A002B31D0042B38BF62462DD3A34238BF022218D3AB4238BF642214D384
:205CA000BB4238BF4FF49E720FD3434538BF4FF47A720AD34B4538BF40F65A4205D3534567
:205CC00034BF42F2107247F68632B3FBF2FC94458CBFACEB0204A2EB0C04022C24BF624475
:205CE0005208F2D2944598BF624692B202EE102A02EE900AB8EE423A02EE101AF8EEE22A88
:205D0000B8EEC22A21EE022A00EEA22A02EE906AF8EEE22A00EE222A32EE212AB5EEC02AEE
:205D2000F1EE10FA02EE101AB8EEC22A21EE021A02EE100AB8EEC22A00EE821A00EE906A95
:205D4000F8EEE00A00EE201A3ABF31EE210AF1EE400A71EE210A80EE830A8CE0FFE702EE18
:205D6000901A03EE100AF8EEE22AB8EEC33A61EE222A40EE832A03EE106AB8EEC33A40EE27
:205D8000032A32EEA13AF2EE042AC3EE223AF5EEC03AF1EE10FA18D202EE901AF8EEE22A84
:205DA00021EE221A02EE900AF8EEE22A00EEA21A00EE906AF8EEE00A00EE201A31EE210A48
:205DC000BAEE041AC0EE010A15E003EE101AB8EEC33A21EE031A03EE100AB8EEC33A00EEC9
:205DE000831A00EE906AF8EEE00A00EE201A31EE210AC0EE220A9FED9E0A82EE001ABCEE9A
:205E0000C10A10EE101A00292FD0042938BF62462BD3A14238BF022018D3A94238BF642050
:205E200014D3B94238BF4FF49E700FD3414538BF4FF47A700AD3494538BF40F65A4005D3A2
:205E4000514534BF42F2107047F68630B1FBF0F282428CBF131A831A022B24BF10444008FF
:205E6000F4D2824298BF104682B200EE102AB8EE401A80EE810A7F487F4AB0F90800C0EBAA
:205E8000C00182FB01218A10A2EBE17100EE901AF8EEE00AF4EEC00AF1EE10FA0CD2C0008E
:205EA00000EE900AF8EEE00AF4EEC00AF1EE10FAC4BF0120BDE8F08F0020BDE8F08F6D4834
:205EC0000021FA234FF47A720381428241818181C181417101824166684A8166C166D1603A
:205EE00002F54C7191ED050ABDEEC00A80ED060A7047634B188059809A807047604BD880C5
:205F000019815A810020D86070472DE9F05FDFF864915C4D4FF000082DED0A8B4646A5F10B
:205F2000100499F80600002859D099F805004FF001089FED558B322821D099ED2C0B53ECD4
:205F4000182B51EC100B0CF0D7FC11D399ED2E0B53EC182B51EC100B0CF0CEFC08D399ED33
:205F6000300B53EC182B51EC100B0CF0C5FC02D2434806F057FC99F8050032282FD1DFF8E0
:205F800004C1B9F90A20ACF80020B9F90C106980B9F90E00A880B4F906309A1AB4F9083081
:205FA0005243591A01FB0121B4F90A20101A00FB00100CF020FC41EC100B21F0C1FD51EC43
:205FC000100B0CF0B1FC00EE100A85ED050ABDEEC00A89ED060AC9F8746089F80660B4F950
:205FE000060000EE100AB4F90800B8EEC0AA00EE100AB4F90A00F8EEC09A00EE100AB5F919
:020000040800F2
:206000000000B8EEC09A00EE100AB5F90200F8EEC0BA00EE100AB5F90400B8EEC0BA00EEA0
:20602000100AF8EEC08A1FEDF98AD9F834000A28DCBF401CC9F834000025154FDFF854A010
:2060400005EB450007EB800090ED000AD0ED010A90ED021A3AEE400A79EEE00A1CE00000F2
:2060600040420F008096980000E1F50500CA9A3B0000C842980C0020676666668853002005
:20608000A8560020B85600200000000000C06240A05000200000A04020EE000A39EE411AC8
:2060A00000EEA00A01EE010A10EE100A0CF0F9FB41EC100B21F044FD51EC100B0CF034FC28
:2060C00050451CDB6D1C0A2DBADBD9F8381001EB410007EB800080ED00AAC0ED019A80ED5B
:2060E000029A481CF84981FB00218A10A2EBE171494201EB810100EB4100C9F838009FED9F
:20610000F4ABD9F834000A28A4BFF34D0A2751DB95ED000AD5ED010A95ED021A30EE6B0A1F
:2061200070EECB0A31EE681A20EE000A00EEA00A01EE010A10EE100A0CF0B3FB41EC100BD7
:2061400021F0FEFCB0EE4A1AF0EE6A1A53EC112B51EC100B0CF0E0FA41EC190B18EE100AB6
:206160000CF09FFB53EC192B0CF0BDF90CF0DCFB08EE100A0C357F1ECAD199ED060AB8EEBC
:20618000C01AC8EE010AB8EEC01AC1EE081AF4EEE10AF1EE10FAF8EEC00A02DD88EE200A2E
:2061A00001E080EE880A6421BDEEC00A10EE100A484300D16420C9F87000822813D9D9F874
:2061C000740080B989F80560A9F81060C9F86460C248C9F86860C9F86C60C6600120C9F86E
:2061E000740089F80600BE4FD9F83C6007F1F0050A2E2CDAB4F900000CF0FDFA07EBC607A0
:20620000C7E90001B4F902000CF0F5FAC7E91401B4F904000CF0EFFAC7E92801B4F906004C
:206220000CF0E9FA05EBC605C5E90001B4F908000CF0E1FAC5E91401B4F90A000CF0DBFA3E
:20624000C5E92801701CC9F83C0000F036B9A44E9FEDA5CBB2464FF00A0BB0EE4C8AF0EE73
:206260006C8AB0EE4C9AF0EE6C9A00BF9AED000B51EC180B53EC102B0CF035F941EC180B1B
:206280000AF1080ABBF1010BF0D153EC1A2B51EC180B0CF041FA41EC180B4FF00A0A9FED2E
:2062A00094BB00BF96ED000B53EC182B51EC100B0CF0BAF941EC100BB0EE4B1AF0EE6B1A0B
:2062C000083620F015FE53EC1A2B51EC100B0CF023FA53EC192B0CF006F941EC190BBAF1EE
:2062E000010ADFD1B0EE490AF0EE690A21F028FCB0EE4C8AF0EE6C8A07F1500689ED2C0B29
:20630000B0EE489AF0EE689AB2464FF00A0B00BF9AED000B51EC190B53EC102B0CF0E3F8CE
:2063200041EC190B0AF1080ABBF1010BF0D153EC1A2B51EC190B0CF0EFF941EC190B4FF02D
:206340000A0A00BF96ED000B53EC192B51EC100B0CF06AF941EC100BB0EE4B1AF0EE6B1AF4
:20636000083620F0C5FD53EC1A2B51EC100B0CF0D3F953EC182B0CF0B6F841EC180BBAF142
:20638000010ADFD1B0EE480AF0EE680A21F0D8FBB0EE4C8AF0EE6C8A07F1A00A89ED2E0B85
:2063A000B0EE489AF0EE689A56464FF00A0B00BF96ED000B51EC180B53EC102B0CF093F8DF
:2063C00041EC180B0836BBF1010BF1D153EC1A2B51EC180B0CF0A0F941EC180B5FF00A068D
:2063E0009AED000B53EC182B51EC100B0CF01CF941EC100BB0EE4B1AF0EE6B1A0AF1080A65
:2064000020F076FD53EC1A2B51EC100B0CF084F953EC192B0CF067F841EC190B761EDFD131
:20642000B0EE490AF0EE690A21F08AFB89ED300B5FF0000107EBC10090ED020B80ED000BCE
:2064400090ED160B80ED140B90ED2A0B80ED280B05EBC100491C90ED020B092980ED000B76
:2064600090ED160B80ED140B90ED2A0B80ED280BE0DBB4F900000CF0BEF9C7E91201B4F915
:2064800002000CF0B8F9C7E92601B4F904000CF0B2F9C7E93A01B4F906000CF0ACF9C5E931
:2064A0001201B4F908000CF0A6F9C5E92601B4F90A000CF0A0F9C5E93A014046BDEC0A8BAB
:2064C000BDE8F09F0000000067666666000000000000000000002440A05000208853002080
:2064E000185100200000000000000000000000000000000000000040FB48407932280CBFB2
:206500000120002070470021F748F84A4171018241668166C166D160012141678171704753
:20652000F3490A8802804A8842808A88828091ED020A80ED020A91ED030A80ED030A91EDDD
:20654000040A80ED040A91ED050A80ED050A7047E74902880A8042884A8082888A8090ED89
:20656000020A81ED020A90ED030A81ED030A90ED040A81ED040A90ED050A81ED050A0388F5
:2065800041888288D84843818181C28132214171704710B504462DED088BB0EEC09AF0EEB1
:2065A000E08AB0EEC18A9FEDD4ABB4EEE89AF1EE10FAC4BFB4EEC89AF1EE10FA5ADDB5EE26
:2065C000C00A18EE900AF1EE10FA2ADD0CF069F953EC1A2B0CF02EF841EC1B0B19EE100AE9
:2065E0000CF05FF953EC1B2B0CF086F980F0F98018EE100A0CF055F953EC1A2B0CF01AF862
:2066000041EC180B19EE100A0CF04BF953EC182B0CF072F938BF042080F0E380BDEC088BB6
:2066200010BD0CF03EF953EC1A2B0CF003F841EC1B0B19EE100A0CF034F953EC1B2B0CF0C1
:206640005BF975D218EE100A0CF02BF953EC1A2B0BF0F0FF41EC180B19EE100A0CF021F96A
:2066600053EC182B0CF048F938BF052060D2BDEC088B10BDF4EEC88AF1EE10FA59DDF5EECE
:20668000C00A19EE100AF1EE10FA28DD0CF009F953EC1A2B0BF0CEFF41EC190B18EE900AE6
:2066A0000CF0FFF853EC192B0CF026F940D218EE100A0CF0F6F853EC1A2B0BF0BBFF41ECC7
:2066C000190B18EE900A0CF0ECF853EC192B0CF013F938BF01202BD2BDEC088B10BD0CF071
:2066E000E0F853EC1A2B0BF0A5FF41EC190B18EE900A0CF0D6F853EC192B0CF0FDF870D22E
:2067000018EE100A0CF0CDF853EC1A2B0BF092FF41EC190B18EE900A0CF0C3F853EC192B5D
:206720000CF0EAF838BF03205BD2BDEC088B10BD57E0B5EEC01A18EE900AF1EE10FA28DDE9
:206740000CF0AFF853EC1A2B0BF074FF41EC1B0B18EE100A0CF0A5F853EC1B2B0CF0CCF853
:206760003FD219EE100A0CF09CF853EC1A2B0BF061FF41EC190B18EE100A0CF092F853EC42
:20678000192B0CF0B9F838BF00202AD2BDEC088B10BD0CF086F853EC1A2B0BF04BFF41EC7C
:2067A0001B0B18EE100A0CF07CF853EC1B2B0CF0A3F816D219EE100A0CF073F853EC1A2B13
:2067C0000BF038FF41EC190B18EE100A0CF069F853EC192B0CF090F83EBF0220BDEC088B57
:2067E00010BD2046BDEC088B10BD70B50D462DED0E8B43493C4C90ED000AD0ED018AD0ED92
:20680000029A90ED03AA91F85210206C92ED002AD2ED011A92ED021AF9B1B0EE688AF0EE05
:20682000408AF1EE699AB1EE411AF0EE420AB0EE610AFFF7AEFE20649FED33BB9FED34CB54
:206840009FED35DB9FED360AF0EE00AA062849D2DFE800F00D10686D680DB0EE408AF0EE9B
:20686000610AB0EE420AFFF794FE2064E4E795ED009A94E068EE080A28EEA80A29EEA91A52
:206880006AEE0A1A30EEC00A30EE410A30EE210A10EE100A0CF005F828EE280A41EC1E0B33
:2068A00009EE8A0A20EE2A0A10EE100A0BF0F9FF41EC100BB0EE4E1AF0EE6E1A1FF064FFDA
:2068C00053EC1B2B51EC100B0BF0B4FE53EC1C2B0BF022FF53EC1D2B0BF0A6FE0CF024F84E
:2068E00009EE100A5BE00000980C002088530020B856002000000000B81E85EB51B8F63FDB
:20690000C85700200000000000000000008066406F1283C0CA210940000000000080564004
:2069200000003443D5ED000A30EE809A37E028EE080A68EEA80A29EEA91A6AEE0A1A30EE21
:20694000600A30EE410A30EE210A10EE100A0BF0A8FF28EE280A41EC1E0B09EE8A0A20EE2A
:206960002A0A10EE100A0BF09CFF41EC100BB0EE4E1AF0EE6E1A1FF007FF53EC1B2B51ECAA
:20698000100B0BF057FE53EC1C2B0BF0C5FE53EC1D2B0BF0A8FD0BF0C7FF09EE100AFF4907
:2069A00019EE100A9FEDFE0A8842A8BF39EE409AB5EEC09AF1EE10FA38BF39EE009AB0EEB4
:2069C000490ABDEC0E8B70BD2DE9F05F8946824690460921F3480BF04FFDDFF8CCB30022FF
:2069E000CBF8C922CBF8CD228BF8D122CBF8D222CBF8D6228BF8DA229AF80010A1F142005A
:206A00001828204638BF203161F3070099F80010A1F14203182B38BF203161F3070698F839
:206A20000010A1F14203182B38BF203161F307079AF80110A1F14203182B38BF203161F329
:206A40000F2099F80110A1F14203182B38BF203161F30F2698F80110A1F14203182B38BFC8
:206A6000203161F30F279AF80210A1F14203182B38BF203161F3174099F80210A1F1420310
:206A8000182B38BF203161F3174698F80210A1F14203182B38BF203161F317470124C3B26A
:206AA000C049A51E732B08BFCD7013D00BDC642B08BF8D710ED0652B08BF0C700AD06E2B26
:206AC00008BFCC7006E0752B08BF8C7102D0772B08BF0D70C0F30723732B08BF0D7113D00E
:206AE0000BDC642B08BFCD710ED0652B08BF4C700AD06E2B08BF0C7106E0752B08BFCC71E9
:206B000002D0772B08BF4D70C0F30740732808BF4D7113D00BDC642808BF0D720ED065285C
:206B200008BF8C700AD06E2808BF4C7106E0752808BF0C7202D0772808BF8D70F1B29B481B
:206B4000732908BFC57013D00BDC642908BF85710ED0652908BF04700AD06E2908BFC47076
:206B600006E0752908BF847102D0772908BF0570C6F30721732908BF057113D00BDC642916
:206B800008BFC5710ED0652908BF44700AD06E2908BF047106E0752908BFC47102D0772972
:206BA00008BF4570C6F30741732908BF457113D00BDC642908BF05720ED0652908BF847083
:206BC0000AD06E2908BF447106E0752908BF047202D0772908BF8570F9B27548732908BF0E
:206BE000C57013D00BDC642908BF85710ED0652908BF04700AD06E2908BFC47006E07529B5
:206C000008BF847102D0772908BF0570C7F30721732908BF057113D00BDC642908BFC571FB
:206C20000ED0652908BF44700AD06E2908BF047106E0752908BFC47102D0772908BF457052
:206C4000C7F30741732908BF457113D00BDC642908BF05720ED0652908BF84700AD06E29EC
:206C600008BF447106E0752908BF047202D0772908BF85701646CBF8DB224E4FCBF8DF222C
:206C80008BF8E32238461FF099F9CBF8ED62CBF8F1628BF8F5629AF800002246A0F142017D
:206CA000182938BF203060F3070299F80010A1F142001828204638BF203161F3070098F8A2
:206CC0000030A3F142011829214638BF203363F307019AF80130A3F1420CBCF1180F38BFED
:206CE000203363F30F2299F80130A3F1420CBCF1180F38BF203363F30F2098F80130A3F11E
:206D0000420CBCF1180F38BF203363F30F219AF80230A3F1420CBCF1180F38BF203363F367
:206D2000174299F80230A3F1420CBCF1180F38BF203363F3174098F80230A3F1420CBCF139
:206D4000180F38BF203363F3174102F0FF0C1A4BBCF1730F08BFDD7018D00EDCBCF1640F7D
:206D600008BF9D7112D0BCF1650F08BF1C700DD0BCF16E0F08BFDC7008E0BCF1750F08BFEE
:206D80009C7103D0BCF1770F08BF1D70C2F3072CBCF1730F08BF1D7129D00FE00000B44341
:206DA0000000B443605B0020A0580020725B0020695B0020845B00207B5B00200EDCBCF18C
:206DC000640F08BFDD7112D0BCF1650F08BF5C700DD0BCF16E0F08BF1C7108E0BCF1750F21
:206DE00008BFDC7103D0BCF1770F08BF5D70C2F30742732A08BF5D7113D00BDC642A08BF96
:206E00001D720ED0652A08BF9C700AD06E2A08BF5C7106E0752A08BF1C7202D0772A08BF89
:206E20009D70C3B2FE4A732B08BFD57013D00BDC642B08BF95710ED0652B08BF14700AD025
:206E40006E2B08BFD47006E0752B08BF947102D0772B08BF1570C0F30723732B08BF1571B4
:206E600013D00BDC642B08BFD5710ED0652B08BF54700AD06E2B08BF147106E0752B08BFA7
:206E8000D47102D0772B08BF5570C0F30740732808BF557113D00BDC642808BF15720ED009
:206EA000652808BF94700AD06E2808BF547106E0752808BF147202D0772808BF9570C8B2F7
:206EC000732808BFFD7013D00BDC642808BFBD710ED0652808BF3C700AD06E2808BFFC7017
:206EE00006E0752808BFBC7102D0772808BF3D70C1F30720732808BF3D7113D00BDC6428F5
:206F000008BFFD710ED0652808BF7C700AD06E2808BF3C7106E0752808BFFC7102D0772812
:206F200008BF7D70C1F30740732804BF7D71BDE8F09F0EDC642804BF3D72BDE8F09F652879
:206F400004BFBC70BDE8F09F6E2808BF7C71BDE8F09F752804BF3C72BDE8F09F772808BFE8
:206F6000BD70BDE8F09FAF4B93E80E1080E80E1070472DE9F047AD480026AB4C8667C66767
:206F800004F51275C830FEF7ADFC092104F592600BF072FA04F5E877A548C7F8C962C7F871
:206FA000CD6287F8D162C7F8D262C7F8D66287F8DA62FEF797FCC7F8DB62C7F8DF6287F848
:206FC000E36204F2B4401EF0F9FFC7F8ED629948C7F8F16287F8F56290E8861004F1780327
:206FE000F7EE000A83E8861090E80E1004F1880787E80E1090E88C1004F1980181E88C1053
:2070000090E8861004F1A80383E8861090E88A1004F1B80282E88A1090E88C1004F1C8012A
:2070200081E88C1090E88E0004F1D80C8CE88E0090E88C1004F1E80181E88C10C4ED0F0AA9
:207040009FED7D0A84ED100A84ED110A84ED120AC4ED130A84ED140A84ED150A84ED160AFB
:20706000C4ED170A84ED180A84ED190A84ED1A0A84ED1B0A84ED1C0A84ED1D0A9FED6F1AA8
:20708000F83484ED001A9FED6E1A84ED011A9FED6D1A84ED021A9FED6C1A84ED031AB2EEB9
:2070A000041A84ED041A9FED691A84ED051A9FED681A84ED061A9FED671A012784ED071A1E
:2070C000B3EE0E1A84ED0E1A84F8207084F8217084F8227084F8237084F8247084F8256007
:2070E00084F8266084F827600A2184F82810282184F83C10C4ED0B0A84F834704FF002086C
:2071000084F8298084F8506084F8518084F852609FED511A84ED101A9FED501A84ED111A7F
:207120009FED4F1A84ED121A9FED4E1A4E4984ED131A303081ED280A81ED290A81ED2A0A51
:2071400090E80E1005F1780989E80E1090E80E1005F1880989E80E1090E80E1005F19809BA
:2071600089E80E1090E80E1005F1A80989E80E1090E80E1005F1B80989E80E1090E80E1042
:2071800005F1C80989E80E1090E80E1005F1D80989E80E1090E80B1005F1E80282E80B10A5
:2071A000C5ED0F0A85ED100A85ED110A85ED120AC5ED130A85ED140A85ED150A85ED160ADB
:2071C000C5ED170A85ED180A85ED190A85ED1A0A85ED1B0A85ED1C0A85ED1D0ADFED170A68
:2071E00004F51275C5ED000ADFED150AC5ED010ADFED140AC5ED020ADFED130AC5ED030A5B
:20720000F2EE040AC5ED040ADFED100AC5ED050ADFED0F0AC5ED060ADFED0E0A26E0000088
:207220008D5B00200CC60208D0560020980C002030160020DCC50208000000008195633F97
:2072400021B02A40CFF7133F83C02A3F0000704200001642295C0F3E282C713927A0093A4B
:207260000742B239CDCCCC3D600D0020C5ED070AF3EE0E0AC5ED0E0A85F8207085F821700A
:2072800085F8226085F8237085F8247085F8256085F8266085F827600A2085F828002820AE
:2072A00085F83C0085ED0B0A85F8347085F8298085F8506085F851805FED190A85F852602E
:2072C000C5ED100A5FED1B0AC5ED110A5FED1C0AC5ED120A5FED1D0AC5ED130AFE48A0F646
:2072E000741280ED280A80ED290A80ED2A0AA0F67811A0F67C10FFF767FB9FEDF80AF7EE1C
:20730000080A85ED000A1FED301AC5ED010A85ED031A9FEDF31A85ED101ADFEDF21AC5ED7E
:20732000111A9FEDF12A5FED312A85ED122A85F8518085F8526085F82170C5ED132A85F82F
:20734000226085F8237085F8247084ED000AC4ED010A1FED430A84ED030A84ED101AC4ED30
:20736000111A84ED122A84F8518084F8526084F821801FED440A84ED130A84F8227084F82B
:20738000237084F82470BDE8F087002808BF704790ED000AD54981ED000A90ED010A81ED75
:2073A000010A90ED020A81ED030A90ED040A81ED100A90ED050A81ED110A90ED060A81ED9B
:2073C000120A90F8282081F8512090F8352081F8522090ED000AA1F5127181ED000A90ED7A
:2073E000010A81ED010A90ED020A81ED030A027B81F8212090ED070A81ED100A90ED080A29
:2074000081ED110A90ED090A81ED120A90F8282081F8512090F8352081F85220B44A816B5D
:207420009162B44990F829200A700A1D90F82D30137001F1080390F831C083F800C090F849
:207440002AC081F801C090F82EC082F801C090F832C083F801C090F82BC081F802C090F86B
:207460002F10917090F83300121D9870111F081FFFF7AABA0021002808BF704730B49E4A96
:207480009C4C92ED000A80ED000A92ED010A80ED010A92ED030A80ED020A92F821300373AC
:2074A00002F5127393ED100A80ED040A93ED110A80ED050A93ED120A80ED060A92ED100A72
:2074C00080ED070A92ED110A80ED080A92ED120A80ED090A92F8513080F8283092F8522023
:2074E00080F83520824A231D03F1040C926A82634218655C82F829505D5C82F82D501CF8FC
:207500000150491C82F831500329F1DB0844002280F8292080F82D2080F8312030BC704762
:20752000734890F878007047714890F87C0070476F490028886708BF70476748FEF7D2B9E9
:207540006B490028C86708BF70476C48FEF7CAB970B504462DED048B00680BF0A2F99FEDD4
:20756000688B53EC182B0BF065F89FED679B53EC192B0BF0D1F80BF0D7F90546206060680B
:207580000BF08FF953EC182B0BF054F853EC192B0BF0C2F80BF0C8F96060A0680BF081F96E
:2075A00053EC182B0BF046F853EC192B0BF0B4F80BF0BAF95149A06001F50D60C1F8A05092
:2075C00094ED010A81ED290A94ED020A81ED2A0A94ED000A80ED280A94ED010A80ED290AF9
:2075E00094ED020A80ED2A0ABDEC048B70BD10B504463F482DED048BC06F68B13F4890ED6D
:20760000280A84ED000A90ED290A84ED010A90ED2A0A84ED020A0CE02F4890ED280A84EDE0
:20762000000A90ED290A84ED010A90ED2A0A84ED020A20680BF035F99FED338B53EC182B69
:207640000AF0F8FF9FED2E9B53EC192B0BF064F80BF06AF9206060680BF023F953EC182BCB
:207660000AF0E8FF53EC192B0BF056F80BF05CF96060A0680BF015F953EC182B0AF0DAFFE7
:2076800053EC192B0BF048F80BF04EF9A060BDEC048B10BD9FED1E0AD0ED004A91ED031A8F
:2076A000F0EE400A90ED014A44EE810A91ED025AD1ED015AD0ED023A91ED006AF1EE652ADB
:2076C00044EE050A90ED033AF1EE451AB1EE462A43EEA20A1EE00000301600206666663FB0
:2076E00017B7513A3480373A3480373B105A0020980C0020B40C0020C8570020600D0020EC
:207700006F1283C0CA21094000000000008066400000000043EE060AC2ED000AF0EE400A29
:2077200044EEA10A44EE010A43EE860A43EE250AC2ED010AF0EE400A04EE820A44EEA50ACD
:2077400004EE220A44EE020A03EEA10A43EE810A03EE010A43EE050AC2ED020A82ED030A02
:20776000704790ED000AD0ED010A30EE800AD0ED020A30EE800A70472DE9F00390E8F813A7
:2077800089B08DE8F813036A089390ED000AD0ED010A0127B0EEC00AF0EEE00A0223F4EE7A
:2077A000C00A4FF0030CF1EE10FA03DD0227B0EE600A0123D0ED020AF0EEE00AF4EEC00A56
:2077C000F1EE10FA03DD032702234FF0010C00EB830400EB870014ED010A50ED010A6E4659
:2077E00006EB830080EE201A06EB8C0406EB870500ED011A14ED010A55ED010A80EE201A66
:2078000004ED011A90ED020A50ED010A95ED021A00EEC10A80ED020A94ED020A54ED010AE2
:2078200095ED021A00EEC10A84ED020A90ED050A50ED010A95ED051A00EEC10A80ED050ACA
:2078400094ED050A54ED010A95ED051A00EEC10A84ED050A94ED020AD0ED020AB0EEC00AB4
:20786000F0EEE00AB4EEE00AF1EE10FA02DD18466346844606EB8C0406EB830694ED020A93
:2078800096ED021A01EB870701EB8303C0EE010A01EB8C00C4ED020A94ED052A96ED050A2D
:2078A00000EEC02A84ED052A17ED010A82ED000A13ED011A56ED013A00EE631A82ED011A3A
:2078C00010ED013A54ED011A00EE613A01EE603AC3EE022AC2ED022AD6ED054A96ED025A59
:2078E00095ED053A02EEE41A02EEC30A81EE054A82ED014AD5ED022A04EE620A15ED014A0B
:2079000080EE041A82ED001A97ED020A82ED030A93ED021A00EE631A82ED041AD0ED025A99
:2079200040EE615A41EE605A85EE826A82ED056A06EE641A06EE430AC1EE055AC2ED045A6A
:2079400005EEE20A80EE041A82ED031A97ED050A82ED060A93ED051A00EE631A82ED071A84
:20796000D0ED053A40EE613A41EE603AC3EE820AC2ED080A00EEE41A00EEC30AC1EE050A16
:20798000C2ED070A00EEE20AC0EE040AC2ED060A09B0BDE8F003704770B50D462DED048BA9
:2079A000B0EE408A0446D0ED008AF4EEC88AF1EE10FA22BF91ED000ABDEC048B70BD94ED62
:2079C0000C9AB4EEC89AF1EE10FADEBF91ED0C0ABDEC048B70BDF84890ED2A0B51EC100B34
:2079E0000AF0A2FF00EE100AF4EEC88AF1EE10FA84BFBDEC048B70BDB4EEC89AF1EE10FA32
:207A0000BCBFBDEC048B70BD012302210D201A18520804EB820C1CED010AB4EEC80AF1EEA2
:207A200010FA9ABF1346511C10468842EFD8581C04EB800105EB800051ED010A04EB830126
:207A400011ED010A70EEC00A38EE400A80EE201A50ED010A05EB830010ED010ABDEC048BE2
:207A600070EEC00A01EE200A70BD90ED000AD0ED010A30EE800AD0ED020A30EE800AD0ED73
:207A8000030A30EE800A704770B500260C4635463146F3EE0E1AB3EE0D2A761C00EB860304
:207AA00003F1080213ED011AD3ED022A4FF00E0C15F1010532EE810AD2ED030A30EE800A3D
:207AC000D2ED060A1832BCF1010C30EE800AF3D1C0EE210A03F108025FF00E0331EE600AA7
:207AE00032EEE01A20EE000A01EE010A92ED031A31EE601A01EE010A92ED061A18325B1EC9
:207B000031EE601A01EE010AF0D104EB8502491CC0EE020A032942ED010ABEDB20680AF0FB
:207B2000C0FE41EC100B20F00BF851EC100B0AF0FBFE206060680AF0B4FE41EC100B1FF096
:207B4000FFFF51EC100B0AF0EFFE6060A0680AF0A8FE41EC100B1FF0F3FF51EC100B0AF0E5
:207B6000E3FEA06070BD2DE9FF5F07462DED0C0B92482DED108BADF5D36D0DF1C409F0EEEB
:207B800040EAB0EE44CAF0EE64CAB0EE43DAF0EE63DAF0EE618AB0E87E1189E87E11B0E8A5
:207BA0001E1039AD0DF5BF6985E81E10B0E87E1189E87E11B0E81E100DF5C3650DF58479D6
:207BC00085E81E10B0E87E1189E87E11B0E81E104AAD0DF5C96985E81E10B0E87E1189E8BF
:207BE0007E11B0E81E100DF5CD650DF1200985E81E10B0E87E1189E87E1170E87112CDE982
:207C0000101200F5E6710DF5127991E87E1189E87E11D0E97B12CDE99A1200F5FA710DF557
:207C2000A07991E87E1189E87E11D0E98512CDE9581200F507700DF50B78B0E87E1088E82C
:207C40007E1090E83F1074AEF0EE41BA86E83F10DDF868070024B0EE60EA0470DDF86C070B
:207C60000470DDF870070470DDF80C0790ED000A534880ED000ADDF80C1791ED010A80ED61
:207C8000010A91ED020A80ED020A0846FDF7A0FD494D85ED240A85ED250ADDF81007FDF740
:207CA00097FDDDF80C07B0EE40BA90ED000A8DED840A8DEDA10AD0ED010ACDED850ACDED31
:207CC000A00AD0ED020ACDEDA20ACDED9F0ADDF81007D0ED001ACDED861A81EE8B1ACDED7D
:207CE0009C1AD5ED240AC0EE20AA8DED001A90ED010A8DED880A8DED9D0ADDF80C07D0ED78
:207D0000011A81EEA0AAC0EE0B1ACDED011ADDF8100790ED020A8DED870A8DED9E0ADDF870
:207D20000C0790ED022AC2EE209AC0EE0B0ACDED020A9FED248ADDF87807DFED23FAB0EE7F
:207D4000489A90F8CD180AEE819A00F10C0900F10808001DCDF87C06DDF878070AEE219A4F
:207D600000F50060CDF8F405DDF87807012600F5806009EEA09AA990002940F0F581DDF892
:207D80007807B7EE00FA80F83040DDF8780780F8CD68DDF8780780F83160DDF8780780EDBE
:207DA0000ECB8DED3E8A8DED3F8A8DED408A00208DED418A092279E0980C00203CC6020868
:207DC000C85B0020000000000AD7A33C00281CBF042808286AD0DDF8781701EB800181EDC8
:207DE000108A401C521EF1D100210846DDF87827801C02EB8102491C82ED198ADDF8782781
:207E000002EB8102491C82ED198A0C28EEDBDDF8780780ED258ADDF8780780ED268ADDF8C8
:207E2000780780ED278A9FEDFE0ADDF8780780ED2B0ADDF8780780ED2CFADDF8780780ED73
:207E40002DFADDF8540790ED000A4FF00000B5EEC00AF1EE10FA14BF51225121B1EE040A4A
:207E600014BFF04BEF4A28D182FB003C4FEAAC03A3EBEC735B4203EB830310EB4303DDF80D
:207E8000783703EB80030CBF83ED2E0A83ED2E8A401C491EE8D1DDF87807314600F5FE707D
:207EA0001EF091F80020092100F040BCDDF8781701EB800181ED10FA93E783FB00C14FEABA
:207EC000A10CACEBE171494201EB810110EB4101DDF8781701EB80010CBF81ED2E0A81ED26
:207EE0002E8A401C521EE8D1D5E700281CBF0428082800F01B84DDF8782702EB800282ED49
:207F0000858A00BFDDF8782702EB800282ED8E8A401C491EE9D10020DDF87827891C02EB86
:207F20008002401C82ED978ADDF8782702EB8002401C82ED978A5A29EEDBDDF87807B0EEC6
:207F4000000A80EDF18ADDF8780780EDF28ADDF8780780EDF38ADDF8780780EDF48ADDF8A0
:207F6000780780EDF58ADDF8780780EDF88ADDF8780780EDFB8ADDF8780780EDFE8ADDF8EF
:207F8000780780EDF68ADDF8780780EDF98ADDF8780780EDFC8ADDF8780780EDFF8ADDF8CB
:207FA000780780EDF78ADDF8780780EDFA8ADDF8780780EDFD8AA99880ED008AA99880EDE1
:207FC000018AA99880ED028AA99880ED038AA99880ED048AA99880ED058AA99880ED068AEA
:207FE000A99880ED078AA99880ED080AA99880ED098ADDF87C0600F5806080ED098A08F518
:020000040800F2
:20800000806080ED098A09F5806080ED098AA99880ED0D8AA99880ED0E8AA99880ED0FFA60
:2080200051EC1C0B0AF080FC00EE100AA998322120EE2F0A0DF17C094FF0000C80ED100A2E
:20804000A998634680ED118AA99880ED12FAA99880ED138ADDF87807C0F85044DDF8780735
:20806000C0F85444DDF87807C0F85814DDF87807C0F85C44DDF80C0790ED000ADDF8100731
:20808000D0ED001ADDF8140790ED003ADDF80C07D0ED010ADDF8100790ED012ADDF814072E
:2080A000D0ED013ADDF80C0790ED021ADDF81007D0ED022ADDF8140790ED024A89EC090A31
:2080C000DDF8780700F58C6808EB8C0199ED000A484681ED000A042290ED010A81ED010A26
:2080E00090ED020A083081ED020A0831521EF3D15B1C0CF1090C1E2BE6DBDDF854074FF4D2
:208100007A7190ED000ADDF8F40580ED260ADDF8540790ED010ADDF8F40580ED270ADDF889
:20812000540790ED020ADDF8F40580ED280ADDF8780780F8A448DDF87807A0F8A648DDF887
:208140007807A0F8A848DDF87807A0F8AA18DDF8780780F8AD48DDF8780780F8AE48DDF812
:208160007807C0F8B04800BF97E80F003EAC84E80F00DDF8780780ED0ECB51EC1C0B0AF026
:20818000D3FB00EE100ACDF8F005A99820EE2F0A80ED100A2448A999B0EE480AD0ED001ACB
:2081A000D1ED180A90ED012A90ED031A01EEA00AD1ED210A91ED3C3AF0EE402A90ED020A56
:2081C00042EE202AD1ED2A0A40EE202AD1ED330A41EE202AD0ED040ADDF8780740EE832A4D
:2081E000C0EDF82AA998F0EE482A90ED193A41EE832A90ED223A42EE032A90ED2B3A40EE2D
:20820000032A90ED343A41EE032A90ED3D3ADDF8780740EE832AC0EDF92AA99806E00000D0
:208220006666663F67666666001F002090ED1A3AF0EE482A41EE832A90ED233A42EE032AC1
:2082400090ED2C3A40EE032A90ED353A41EE032A90ED3E3ADDF8780740EE832AC0EDFA2AA3
:20826000A998F0EE482A90ED1B3A41EE832A90ED243A42EE032A90ED2D3A40EE032A90EDCB
:20828000363A41EE032A90ED3F3ADDF8780740EE832AC0EDFB2AA998F0EE482A90ED1C3AB7
:2082A00041EE832A90ED253A42EE032A90ED2E3A40EE032A90ED373A41EE032A90ED403A28
:2082C000DDF8780740EE832AC0EDFC2AA998F0EE482A90ED1D3A41EE832A90ED263A42EE4E
:2082E000032A90ED2F3A40EE032A90ED383A41EE032A90ED413ADDF8780740EE832AC0EDF1
:20830000FD2AA998F0EE482A90ED1E3A41EE832A90ED273A42EE032A90ED303A40EE032A77
:2083200090ED393A41EE032A90ED423ADDF8780740EE832AC0EDFE2AA998F0EE482A90EDE6
:208340001F3A41EE832A90ED283A42EE032A90ED313A40EE032A90ED3A3A41EE032A90ED9F
:20836000433ADDF8780740EE832AC0EDFF2AA998F0EE482A90ED203A41EE832AD0ED291A37
:2083800042EE212AD0ED321A40EE212A90ED3B0A41EE002A90ED440A40EE802AC0ED002A4B
:2083A000DDF8780700F57870FDF712FA85ED200ADDF8780700F57B70FDF70AFA85ED210A27
:2083C000DDF8780700F57E70FDF702FA85ED220AA998D5ED200AF0EE691AC0ED010AA99851
:2083E000D5ED210AB0EE4A2AC0ED020AA998B0EE6A1A80ED030ADDF87807DDED000AC0ED13
:20840000900ADDED013ADDF8780763EEA12AC0ED933A9DED020ADDF8780740EE422A20EE41
:20842000013A80ED960ADDF8780720EE820A00EEE13AC0ED8F2ADDF8780703EEC10A62EE37
:20844000A20A80ED923ADDF8780723EE031A80ED950A60EE001A31EE200A31EE800A10EE51
:20846000100A0AF01EFA41EC100B1FF069FB51EC100B0AF059FA00EE100ADDF8780728AA42
:20848000D0ED8F0AC0EE801AC0ED8F1ADDF87807D0ED920A80EE801A80ED921ADDF87807C6
:2084A00090ED952AC2EE000AC0ED950ADDF8780790ED960AD0ED932A90ED902A21EE003A0F
:2084C00000EEE23A60EE820A41EEC00A21EEA20A80ED8E3ADDF8780701EE420AC0ED910AF8
:2084E000DDF8780780ED940ADDF8780700F50E7100F50570FFF740F912A928A8FDF73FFA04
:2085000000211D22DDF87837A1EB810003EB8000491C90EDEB0A521E80EDEE0A90EDEC0ADD
:2085200080EDEF0A90EDED0A80EDF00AEAD1DDED120AB0EE000ADDF8780720EE801A0DF5B3
:20854000D061C1EE280AC0ED970ADDED130ADDF8780720EE801AC1EE280AC0ED980ADDEDDE
:20856000140ADDF8780760EE800A80EEA80A80ED990ADDF8780700F51770FFF785FA0DF53A
:20858000D060FDF725F9DDF878070DF2CC5EF6EE008A80EDF10ADDF8780700F51770CDF8B1
:2085A0003006DDF8780700F57270CDF844060020CDF82C06CDF89006CDF88C06FC48D0ED81
:2085C000171A90ED161A00BFDDF890060123401C0146CDF89006DDF82C06AAAA401CCDF8F5
:2085E0002C06DDF83006F44600EB8100011F0DF2AC541E204FEA030591ED000A401EA2EC86
:20860000010A0CF8015B04F8013B01F10C0103F10103F1D10DF2AC53AAA9821C01EB80049F
:2086200001EB8202D4ED000A12ED010AF4EEC00AF1EE10FA09D9B4EE400AF1EE10FA04D1D4
:20864000821C1A54441C1A185470801C1E28E4DB0220A8904000CDF83C06A898012500F11F
:20866000010CBCF11F0F71DADDF83C266146AB1828461F2B02F3828601225E1B012E47DB84
:208680000DF2AC5404EB000BAAAF1BF9018C04EB010A07EB880959ED010A1AF9019C07EB77
:2086A000890717ED010AF4EEC00AF1EE10FA4ED9B4EE400AF1EE10FA49D10EEB0207491C09
:2086C00007F8019C994220D1604582F26986ACEB0009B9F1000F18DD7F1EABF1020419F094
:2086E000010F02D007F8018F641C5FEA69080AD094F801A087F801A014F802AF07F802AF3B
:20870000B8F10108F4D14A444844521C9642B7DA6D1E721E002A55DD0DF2AC512944491EAA
:20872000AEF1010016F0010F3ED139E0DDF87827002802EB800282ED85FA1ABF042808282D
:2087400082ED8EFA3FF4E4ABFFF7DCBB4AE00EEB0207401C07F8018C6045D6D1994282F224
:208760001086A3EB0108B8F1000FCEDD7F1EAAF1020418F0010F02D007F8019F641C5FEAD9
:2087800068090AD094F801A087F801A014F802AF07F802AFB9F10109F4D142444144B4E7B5
:2087A00010F801CF01F801CF90F901C0521009D010F8024F81F801C090F901C001F8024F6C
:2087C000521EF5D1701E05D41EF800102A180DF2AC508154A8981D4603EB000CBCF11F0F4C
:2087E000FFF642AFDDF83C06A8901E287FF732AF9DF9C915AAA800EB810111ED010AB4EEC9
:20880000400AF1EE10FA3CD19DF9BA1500EB810111ED010AB5EEC00AF1EE10FA34BF0122D1
:2088200000229DF9BB1500EB810050ED010AF5EEC00AF1EE10FA34BF0120002082421CD181
:20884000B4EE410AF1EE10FA1EBFB0EE402AB4EE612AF1EE10FA10D0F4EE410AF1EE10FA51
:208860001FBFB0EE602AB4EE612AF1EE10FA70EEC00A18BF00EEA80A03D130EE200A20EE13
:20888000280ADDF84416DDF82C0601EB800000ED010ADDF88C06401CCDF88C060328FFF6D2
:2088A00093AEDDF8780700F57270FCF791FFF0EE400AB1EE000A3E4DCDEDA80A6EEE800A1B
:2088C000D5ED201AA998DFED3DFA81EEA01A6EEE000A80ED091A95ED212AA998C2EE201A41
:2088E0006BEE800AC0ED0A1A95ED220AA998C0EE201AC0ED0B1ADDEDA80AF6EE001AA99860
:2089000060EEA10AC0ED0C0ADDF8780700F22440D0ED010A70EE810A90ED021A71EE200A1E
:2089200090ED031AA99871EE200AB5EE001A60EE810A9FED201AC0ED0D0A62EE210AA998F7
:2089400040EE010A9FED1C0A20EE80FA80ED06FADDF8786796F8CE0848BB01209FED188BCC
:20896000002486F8CE08052706EB840000F5006080ED2EFA06EBC40090ED020B51EC180B55
:2089800053EC102B09F0AFFD41EC180B641C7F1EEAD14FF0050800BF06EBC70453EC182B47
:2089A00094ED020B51EC100B09F0B6FE0CE011E0980C00203333333FCDCC4C3F0000000087
:2089C00000000000000000007F1CC4E90201B8F10108E1D15FF0040406EB840000F50060C7
:2089E00090ED2D8A80ED2E8A06EBC40090ED020B51EC100B09F098FF00EE100A601E10F071
:208A0000FF0440EE08FAE7D106F5006080ED2EFA96ED020B51EC100B09F086FF00EE100A0D
:208A2000A9981FED198B40EE0FFA53EC182BC0ED07FACDEDA3FA51EC1C0B09F045FF08D806
:208A4000A998B7EE000A80ED110AA99880ED130A1DE09FEDF90B51EC1C0B53EC102B09F06F
:208A600033FF66D1A9980DF5BF6190ED070A31A8FEF792FFA9980DF5C96180ED110A9DEDBE
:208A8000A30A42A8FEF788FFA99880ED130AA99890ED110A80ED120ADDF87807D5ED240A52
:208AA00090ED2D0A30EEC00AB0EEC00A10EE100A09F0F7FE41EC100B1EF092F851EC100B74
:208AC00009F0D6FEDDF868170870DDF87807D5ED240ADB4990ED2D0A30EEC00AB0EEC00A91
:208AE00085ED230A90ED2B1AA99839EE411AB0EEC11A30EE010A80ED0E0A10EE100A884249
:208B000059DB9FEDD01AA998CF4970EE411AB0EE081AB7EE000A01EE810A80ED0F0A10EE2C
:208B2000100A88424CDDA998B1EE040A80ED0F0A46E0DDF8F005DDED310A00EE100A31AADC
:208B400042A920EE200A06238DED310A00EE100ADDED420A20EE200A8DED420ADDF8F0052E
:208B6000D2ED010A01EE100A91ED010A61EE200AC2ED010ADDF8F00500EE900A20EE800A7C
:208B800081ED010ADDF8F00592ED021A00EE900A91ED020A60EE810AC2ED020ADDF8F00587
:208BA000083200EE900A20EE800A81ED020A08315B1ED3D156E7A998B7EE000A80ED0F0AD8
:208BC000B7EE00FA30EECF0AB0EEC00A10EE100A09F067FE9FED9E1B53EC112B09F024FD47
:208BE00041EC100B8DEDA60BA998C06B09F059FE41EC100B9DEDA61B1EF07EF851EC100BD7
:208C000009F092FEA999C863DDF8780790F8310000287CD0DDF8780790F83000002876D162
:208C2000A998F6EE000A90ED0D1A0DF5806090EDBA0A20EE200AB4EEC01AF1EE10FA66D269
:208C4000DDF87807DDED001AC0ED121ADDF878079DED011A80ED151ADDF878079DED020A84
:208C600080ED180A5FEDABFA61EE290ADDF8780740EE4A0A20EE2A0A01EEE90A61EE8A1A05
:208C8000C0ED110ADDF8780760EEA00A41EE6A1A20EE001A80ED140ADDF8780771EE200A7D
:208CA00021EEA10AC0ED171A30EE200A10EE100A09F0F7FD41EC100B1EF042FF51EC100BE0
:208CC00009F032FE00EE100ADDF87807D0ED110AC0EE802AC0ED112ADDF8780790ED141AF8
:208CE000C1EE000AC0ED140ADDF8780790ED171A81EE003A80ED173ADDF8780790ED180A94
:208D000090ED122AD0ED151A20EE801A00E047E003EE611A23EE023A3EA902EEC03A22EE65
:208D2000A10A80ED101ADDF8780700EEC20A80ED133ADDF8780780ED160ADDF87807403084
:208D4000FCF71DFEDDF878074349B1EE040A80ED2B9ADDF8780780ED2CBA0020512200BF4D
:208D600081FB00C34FEAA30CACEBE3735B4203EB830310EB4303DDF8783703EB80030CBFCD
:208D800083ED2E0AC3ED2EFA401C521EE8D1DDF87817002081F83100DDF8701701200870AB
:208DA0003EAC5AAE94E80F005AAC84E80F00DDF87807801B10F1900144BF6FF08F01091A1F
:208DC00024292CDA10F1900F29D0DDF8780790ED250A01208DED5E0ADDF8781701EB8002D2
:208DE00006EB800192ED250A801C81ED040A92ED260A092881ED050AEEDB00204FEA0004B8
:208E000006EB800191ED000AB4EE400AF1EE10FA26D000200921DFED11FA00F014BDDDF8D6
:208E20007807242200F1940106F1100009F0FCFAE3E7000000000000000000000000F03FF8
:208E4000CDCCCC3DCDCCCC3D0000A04000000000000000000000E03F676666660000000036
:208E6000401C0D28CCDB9DED3E0AB5EEC00AF1EE10FA02BF9DED3F0AB5EEC00AF1EE10FAA8
:208E80000DD19DED400AB5EEC00AF1EE10FA02BF9DED410AB5EEC00AF1EE10FAB9D053EC16
:208EA000182B51EC1D0B09F00FFD7CD0A998F0EE000A90ED0D1A0DF5806090EDBA0A20EEBB
:208EC000200AB4EEC10AF1EE10FA6CDDDDF878079DED001A5FED1FFA80ED121ADDED011AEE
:208EE000DDF8780761EEA90AC0ED151A9DED020ADDF8780740EE4A0A80ED180A20EE2A0A03
:208F0000DDF8780701EE690A21EE0A1AC0ED110ADDF8780760EEA00A01EEEA1A80ED140AD6
:208F2000DDF8780720EE000A80ED171A21EE011A30EE200A31EE000A10EE100A09F0B1FCCE
:208F400041EC100B1EF0FCFD51EC100B09F0ECFC00EE100ADDF8780790ED111AC1EE000ACC
:208F6000C0ED110ADDF87807D0ED141A81EE801A80ED141ADDF8780790ED172AC2EE001A6A
:208F8000C0ED171ADDF8780790ED182A90ED153AD0ED122A21EE020A01EEC30A61EEA21A39
:208FA00040EEC21A00E04DE060EE830A80ED100ADDF878073EA941EE620AC0ED131ADDF8B3
:208FC0007807C0ED160ADDF878074030FCF7D7FCDDF8701701200870DDF8780780ED2B9A40
:208FE000DDF8780795ED240A80ED2D0ADDF87807C0ED2EFADDF87807C0ED37FADDF878071A
:20900000C0ED40FADDF87807C0ED2FFADDF87807C0ED38FADDF87807C0ED41FADDF878077C
:20902000C0ED30FADDF87807C0ED39FADDF87807C0ED42FADDF87807C0ED6AFADDF878072F
:20904000C0ED7EFA1FED7BAADDF87807F0EE4A9AC0ED259ADDF87807C0ED269ADDF8780723
:20906000C0ED279ADDF8780700F140013EA8FCF7CFFBDDF87807B7EE000AD0ED2B0A00EE76
:20908000E00A10EE100A09F00CFC41EC100B1EF057FD51EC100B09F047FC00EE900ADDF832
:2090A0007807B0EE690AD0ED101A90ED2B1A01EEA00AD0ED111A01EEA90AF0EE401A90ED9F
:2090C000120A40EE011AB0EE690AC0ED821ADDF8780790ED132A02EE200AB0EE402A90ED24
:2090E000140A00EE292A90ED150A00EE012AB0EE690A80ED832ADDF87807D0ED162A02EEF0
:20910000A00AF0EE400A90ED170A40EE290A90ED180A40EE010AC0ED840A9DED840A70EEF5
:20912000610A9DED850A30EE420A8DED010ADDF878079DEDA20A90ED841A30EE410A8DED34
:20914000020AC0ED190ADDF878079DED010A80ED1A0ADDF878079DED020A80ED1B0ADDF868
:20916000780790ED101AFE49B0EE690AD0ED111A91F9002091F9010000EE902A91F9021010
:20918000DDF87837F8EEE00A01EE200A01EE100AB8EEC11AF0EE400A00EE101A41EE810ADE
:2091A00093ED121AB8EEC00A41EE000A9DED860A30EE601A00EE102A8DED001AB8EEC00A7C
:2091C000D3ED131AF0EE690A08AD41EE800A00EE100AD3ED141A92AEB8EEC00A41EE800A84
:2091E00000EE101AD3ED151AB8EEC00A41EE800A9DED880A30EE600A8DED010A00EE102AEE
:20920000D3ED160AB8EEC00A40EE809A00EE100AD3ED170AB8EEC00A40EE809A00EE101AFD
:20922000D3ED180AB8EEC00A40EE809A9DED870A30EE690A8DED020A83ED1C1ADDF8780768
:209240009DED010A80ED1D0ADDF878079DED020A80ED1E0ADDF8780780ED229ADDF8780795
:2092600080ED23BABF48DDF8781790ED240A81ED240ADDF8781791ED2C0AA9993BEE400A25
:20928000B0EEC00A81ED040AD0ED210AA99830EE20BA80ED05BADDED089AF0EE4BAAF4EE7C
:2092A000CB9AF1EE10FA28BF9DED929A4CD29DED11FAB4EEEAFAF1EE10FAD8BF9DED9B9A4B
:2092C00042DDA84890ED2A0B51EC100B09F02CFB9DED080A09EE100AB4EEEA0AF1EE10FA29
:2092E00032D8B4EEEAFAF1EE10FA2DDB012202230A201118490805EB810C1CED010AB4EECE
:20930000EA0AF1EE10FA9ABF0A464B1C08469842EFD8501C05EB800106EB800051ED010ADA
:2093200005EB820111ED010A70EEC00A3AEEC01A81EE200A50ED010A06EB820010ED019A9B
:2093400070EEC90A00EE209AF0EE4BAA08ADF4EEEA9A50AEF1EE10FA28BFDDED509A4CD2A6
:209360009DED11BAB4EEEABAF1EE10FAD8BFDDED599A42DD7B4890ED2A0B51EC100B09F030
:20938000D3FA9DED080A09EE900AB4EEEA0AF1EE10FA32D8B4EEEABAF1EE10FA2DDB0120F2
:2093A00002230A214218520805EB820C1CED010AB4EEEA0AF1EE10FA9ABF1046531C114623
:2093C0009942EFD8411C05EB810206EB810152ED010A05EB800206EB800012ED010A50ED34
:2093E000019A70EEC00A3AEEC01A81EE200A51ED010A70EEE90A40EE209AA9989DED8B0A2D
:209400008BADD0ED0CAA74AEB4EEEA0AF1EE10FA28BFDDED74FA4CD29DED91BAB4EEEABAA8
:20942000F1EE10FAD8BFDDED7AFA42DD4D4890ED2A0B51EC100B09F077FA9DED8B0A0FEE2A
:20944000900AB4EEEA0AF1EE10FA32D8B4EEEABAF1EE10FA2DDB01220223072011184908C9
:2094600005EB810C1CED010AB4EEEA0AF1EE10FA9ABF0A464B1C08469842EFD8501C05EB81
:20948000800106EB800051ED010A05EB820111ED010A70EEC00A3AEEC01A81EE200A50ED15
:2094A000010A06EB820050ED01FA70EEEF0A40EE20FADDF878079FED2C0A00F58F6180EDEF
:2094C000F50ADDF87827B3EE0EAA00F5177082EDF60ADDF8782782EDF70A1E2291ED000A29
:2094E000D0ED000ADDF8783730EE600AC0EE0A0A93EDF50A30EE800A83EDF50AD1ED010A78
:2095000090ED010ADDF8783730EEC00AC0EE0A0A93EDF60A30EE800A83EDF60A91ED020A73
:20952000D0ED020ADDF878370C3030EE600A2431521EC0EE0A0A93EDF70A30EE800A83EDFA
:20954000F70ACBD10020014640F20516DDF87827331A02EB8303C0F1FC02DDF878C705E0DE
:20956000AC0C0020980C0020000000000CEB820202F58C6503F58C6395E8A05FA3E8A05FFF
:20958000D2F880240930491C1A601C29DEDDDDF80C0790ED000AA99880ED180ADDF80C071E
:2095A00090ED010AA99880ED190ADDF80C0790ED020AA99880ED1A0ADDF8100790ED000A9C
:2095C000A99880ED1B0ADDF8100790ED010AA99880ED1C0ADDF8100790ED020AA99880ED4D
:2095E0001D0ADDF8140790ED000AA99880ED1E0ADDF8140790ED010AA99880ED1F0ADDF8D3
:20960000140790ED020AA99880ED200ADDF8780700F67400FCF7DCF88DED730ADDF87807FE
:2096200000F50860FCF7D4F8FF4DB0EE401A85ED241ADDF8F40590ED200AD0ED1D1A90ED34
:209640001E2A80EE01FA9DED730AC1EE800A90ED210A80EE01BA9DED730AC2EE001A90EDFA
:20966000220A90ED1F2A6846C0EE01AA9DED730A82EE001A2BEE010A0AEEE10A8DED000AD5
:209680002AEEA00A0FEE410A8DED010A2FEE210A0BEE600A8DED020AFCF79AF8DDED000AB1
:2096A00028AA80EE801A8DED001ADDED011A61EE0B2AC1EE800ACDED010A9DED022A40EEF1
:2096C000CF2AC2EE001A20EEAA2ACDED021A21EE8F0A01EECB2A01EE6A0A8DED672A8DED9B
:2096E000681A8DED69FA8DED6A0ACDED6B0A8DED6CBACDED6D2ACDED6E1ACDED6FAADDF813
:20970000780700F50E7167A8FEF736F812A928A8FCF735F99DED121ADDED131A9DED142A03
:209720005FED6FAAB0EE6ABA5FED71AAB0EE6AFA5FED73AADDF878071E2100F58F6000BFFA
:2097400090ED000AC0EE0A0A30EE8BBAD0ED010A80EE8A0AD0ED020A2430491E30EE0FFAE8
:2097600080EE8A0A70EE2AAAEAD1DDF84C07E8B3012818BF03287CD029E100281CBF042887
:20978000082860D0DDF8782702EB8002C2ED10FA401C491EF1D1DDF878073EA94030FCF7AA
:2097A000EEF8DDF87807C0ED25FADDF87807C0ED26FADDF87807C0ED27FADDF8540790EDB3
:2097C000000ADDF8780780ED280ADDF8540790ED010ADDF8780780ED290ADDF8540790ED33
:2097E000020ADDF8780780ED2A0A00E032E09FED8F0ADDF878078E4B80ED2B0ADDF878072E
:20980000B1EE040A80ED2CFADDF8780780ED2DFA0020512183FB002C4FEAAC02A2EBEC7212
:20982000524202EB820210EB4202DDF8782702EB80020CBF82ED2E0AC2ED2EFA401C491EF5
:20984000E8D1FFF72CBBDDF8782702EB800282ED10FA9DE7DDF8780780F80242DDF878072E
:2098600080F80342DDF8780780F80442DDF8780700E01EE090ED280AD0ED290A90ED2A1A87
:2098800080ED1F0ADDF87807C0ED200ADDF8780780ED211ADDF87807C0F85C44DDF878070B
:2098A00090F8300000281CBFDDF8780780F83040ACE095ED200AB4EEEE0AF1EE10FA3FBFF8
:2098C00095ED210AB4EECE0AF1EE10FA95ED220A3CBFB4EEEB0AF1EE10FA78D2DDF87807B1
:2098E000D0F850040A281BD0DDF8781781F80242DDF8781781F80342DDF8781781F80442C9
:20990000411C002803DD0029D8BF6FF00041DDF87807C0F85014DDF87807C0F85C4475E011
:20992000DDF87817012081F80202DDF8781781F80302DDF8781781F80402DDF8141791EDE2
:20994000000ADDF8781781ED1F0ADDF8141791ED010ADDF8781781ED200ADDF8141791EDFF
:20996000020ADDF8781781ED210ADDF86C170870DDF87807D0F85C14481C002903DD0028ED
:20998000D8BF6FF00040DDF87817C1F85C04DDF8781791F83010A9B1DDF8781791ED1F0A82
:2099A000D1ED200A91ED211A81ED280ADDF87817C1ED290ADDF8781781ED2A1ADDF87817A7
:2099C00081F830401E2821D100F0D0BCFFE702283ED0042800F0B182DDF87807C0F85044DD
:2099E000DDF8780790ED280AD0ED290A90ED2A1A80ED1F0ADDF87807C0ED200ADDF878079E
:209A000080ED211ADDF87807C0F85C4419EE900A08498842DDF87807C0F2C28480F802422E
:209A2000DDF8780708E00000980C00206666663F676666660000484280F80342DDF8780781
:209A400080F80442DDF87807C0F8584400F0C1BCDDF878070126B4EE000A80F80262DDF85B
:209A6000780780F80362DDF8780780F80462A998D0ED100A60EE800A9DEDA30AB4EEE00AA5
:209A8000F1EE10FA70D8DDF8780790F8A4080028DDF84007D0ED060A2CD0B6EE000A60EE04
:209AA000800AC0ED060ADDF84007D0ED070A60EE800AC0ED070ADDF84007D0ED080A20EEE6
:209AC000800A80ED080A00BFDDF87807B0F8A608401CB0F5803F81F07384DDF8781780B256
:209AE0003228A1F8A60836D3DDF8780790F8A40888BB16E0B0EE080AC0EE802AC0ED062A16
:209B0000DDF84007D0ED070AC0EE802AC0ED072ADDF84007D0ED080AC0EE802AC0ED082A03
:209B2000D2E7DDF84007D0ED060A9FEDF70AC0EE802AC0ED062ADDF84007D0ED070AC0EE29
:209B4000802AC0ED072ADDF84007D0ED080AC0EE802AC0ED082ADDF87807B0F8A608462843
:209B600003D0642815D09CE035E0DDF8780790F8A40878BBDDF87807B7EE000A80ED4C0A8F
:209B8000DDF8780780ED560ADDF8780780ED600ACEE0DDF8780790F8A408D8B9DDF878075E
:209BA00080F8A468DDF8780790ED280ADDF8F40580ED260ADDF8780790ED290ADDF8F405E1
:209BC00080ED270ADDF8780790ED2A0ADDF8F40580ED280A6AE095ED200AB4EEEE0AF1EE06
:209BE00010FA3FBFD5ED210AF4EECE0AF1EE10FA95ED223A3CBFB4EEEB3AF1EE10FA34D23E
:209C0000DDEDA82A12EE900AB0F17C5F2DDAC0EE2E2A80EE8E0AC3EE2B0A30EE220A30EE31
:209C2000800A10EE100AB0F17F5F1EDADDF84007B6EE000AD0ED060A60EE800AC0ED060ADF
:209C4000DDF84007D0ED070A60EE800AC0ED070ADDF84007D0ED080A20EE800A80ED080A82
:209C6000DDF87807A0F8A6481BE0DDF8400790ED060A20EE2F0A80ED060ADDF8400790ED09
:209C8000070A20EE2F0A80ED070ADDF8400790ED080A20EE2F0A80ED080ADDF87807A0F891
:209CA000A648DDF8780790F8A408E0B3B0EE000A684661EE000ACDED000A61EE800A22EE3F
:209CC000000ACDED010A8DED020AFBF781FD10EE100A8E4988426EDC53EC182B51EC1D0BD5
:209CE00008F0F2FDDDF878070ABFD0F85004C0F8504432287DD0DDF8780780F80242DDF86C
:209D0000780780F80342DDF8780780F80442DDF87807D0F85014481C002940F3B982002852
:209D200000F3B68200E003E06FF0004000F0B0BADDF8780790F8300038B39DEDA80A10EE0B
:209D4000100AB0F1804F20DADDF87807D0F8C403B0F1814F19DADDF8780790EDF50AD0EDAB
:209D6000F60A90EDF71A80ED1F0ADDF87807C0ED200ADDF8780780ED211ADDF86C070670DA
:209D8000DDF8780780F8304040E6DDF87807D0F854041E2810D0411C002803DD0029D8BFA2
:209DA0006FF00041DDF87807C0F85414DDF87807C0F85C442AE6ABE0DDF87807B0F8A6089E
:209DC00028281DD3DDF8140790ED000ADDF8780780ED1F0ADDF8140790ED010ADDF8780716
:209DE00080ED200ADDF8140790ED020ADDF8780700E02CE080ED210ADDF86C07067014E0C9
:209E0000DDF8780790EDF50AD0EDF60A90EDF71A80ED1F0ADDF87807C0ED200ADDF8780712
:209E200080ED211ADDF86C070670DDF87807C0F85C64DDF87807B0F8A808401CB0F5803F84
:209E400081F0C282DDF87817A1F8A808DEE5DDF84007B1EE040AD0ED060A80EE801A80EDD2
:209E6000061ADDF8780780F80262DDF84007D0ED070A80EE801A80ED071ADDF8780780F846
:209E80000362DDF84007D0ED080A80EE801A80ED081ADDF8780780F80462DDF87807D0F88D
:209EA0005C04B0F57A7F17D1DDF8781791ED280ADDF8F41581ED260ADDF8781791ED290A17
:209EC000DDF8F41581ED270ADDF8781791ED2A0ADDF8F41581ED280A411C002803DD0029E3
:209EE000D8BF6FF00041DDF87807C0F85C14DDF8780780ED28BADDF8780780ED29FADDF853
:209F00007807C0ED2AAA81E55555D53F0AD7A33BDDF87807C0F85044DDF8780780F80242AE
:209F2000DDF8780780F80342DDF8780780F80442DDF87807C0F85C4468E5FE482B7990ED9E
:209F4000950A90ED962AD0ED970A90ED981AD0ED991AF948052B00F13C0135D2DDF8102776
:209F600092ED000A03EB430200EB820080ED000ADDF810C79CED010A80ED010ADDF810C7DD
:209F80009CED020A80ED020ADDF8140790ED000A01EB820080ED000ADDF8141791ED010ACE
:209FA00080ED010ADDF8141791ED020A80ED020A581C2871DDF86C0704700DF5D36DBDEC72
:209FC000108B10B0BDE8F09FD0ED032AC0ED002A90ED04FA60EE222A80ED01FAD0ED05DA18
:209FE000C0ED02DAD1ED034AC1ED004ACDEDB34A91ED044A81ED014A8DEDB24AD1ED053A26
:020000040800F2
:20A00000C1ED023ACDEDB13A90ED06DA80ED03DA90ED07BA80ED04BA90ED085A80ED055AF6
:20A020008DEDAF5AD1ED064AC1ED034ACDEDAE4A91ED074A81ED044A8DEDAD4AD1ED083AE6
:20A04000C1ED053ACDEDAC3AD0ED09FAC0ED06FAD0ED0AAAC0ED07AA90ED0B5A80ED085A86
:20A060008DEDAA5AD1ED094AC1ED064ACDEDA84A91ED0A4A81ED074A8DEDA74AD1ED0B3AA8
:20A08000C1ED083ACDEDA63A90ED0CAA80ED09AAD0ED0D7AC0ED0A7A90ED0E7A80ED0B7A77
:20A0A000D1ED0C6AC1ED096A91ED0D6A81ED0A6AD1ED0E3AC1ED0B3ACDED893ADDF81027F2
:20A0C000D2ED005AC0ED0C5A92ED015A80ED0D5AD2ED024AC0ED0E4ADDF8140790ED004ADF
:20A0E00081ED0C4AD0ED013AC1ED0D3A90ED023A81ED0E3A42EE0D2A904840EEAF2A41EECB
:20A100000A2A41EEA52AC0ED002A60EE0F2A42EE0B2A40EEAA2A41EE272A41EE852AC0ED3D
:20A12000012A60EE2D2A9DEDAF5A42EE052A9DEDAA5A40EE852A41EE072A41EEA42AC0EDE8
:20A14000022ADDEDB34A0C3060EE242ADDEDAE4A42EE242ADDEDA84A40EEA42A41EE262ABD
:20A1600041EE842AC0ED002A9DEDB24A60EE042A9DEDAD4A42EE042A9DEDA74A40EE842AF3
:20A1800041EE062A41EEA32AC0ED012ADDEDB13A20EE230ADDEDAC3A02EE230ADDEDA63A25
:20A1A00000EEA30ADDED893A01EE230A01EE830A80ED020A0C38FBF70BFBB0EE40AA6048FA
:20A1C000FBF706FBB4EECAEAF1EE10FA7FF71EACB4EEEB0AF1EE10FABFF418ACDDF8140726
:20A1E00090ED000A5748B0EEC00A10EE101A8142BFF60CACDDF8141791ED010AB0EEC00A88
:20A2000010EE101A8142BFF601ACDDF8141791ED020AB0EEC00A10EE101A8142BFF6F6ABBE
:20A22000DDF8100790ED000A4748B0EEC00A10EE101A8842FFF6EAABDDF8101791ED010AB3
:20A24000B0EEC00A10EE101A8842FFF6DFABDDF8101791ED020AB0EEC00A10EE101A884245
:20A26000FFF6D4ABDDF87807D0F850140A2919D080F80242DDF8780780F80342DDF87807AD
:20A2800080F80442481C002902DD00287FF74AADDDF87817C1F85004DDF87807C0F85C44E2
:20A2A000FFF7B4BBDDF87817012081F80202DDF8781781F80302DDF8781781F80402DDF89D
:20A2C000141791ED000ADDF8781781ED1F0ADDF8141791ED010ADDF8781781ED200ADDF876
:20A2E000141791ED020ADDF8781781ED210ADDF86C170870DDF87807D0F85C14481C0029C3
:20A3000003DD0028D8BF6FF00040DDF87817C1F85C04DDF8781791F8301019B3DDF8781725
:20A3200091ED1F0AD1ED200A91ED211A81ED280A0CE0000068C5020810530020F852002025
:20A34000045300200000C8413333B33FDDF87817C1ED290ADDF8781781ED2A1ADDF8781766
:20A3600081F830401E287FF451AB00BFDDF8780790ED280ADDF8F40580ED260ADDF87807BE
:20A3800090ED290ADDF8F40580ED270ADDF8780790ED2A0ADDF8F40580ED280AFFF736BB48
:20A3A000D0F85814322914DA80F80242DDF8780780F80342DDF8780780F80442481C0029B4
:20A3C00003DD0028D8BF6FF00040DDF87817C1F85804DDF84007B7EE00AA90ED060A79EE67
:20A3E0000A0A20EE290A80ED060ADDF8400790ED070A20EE290A80ED070ADDF8400790ED89
:20A40000080A20EE290AF0EE009A80ED080A89EEA00A10EE100AFE498842C0F2D98700BFD7
:20A42000DDF84007D0ED000AA99890ED111A60EE810A90ED0F1ADDF8400760EE810AC0ED2F
:20A44000000ADDF84007D0ED010AA99890ED111A60EE810A90ED0F1ADDF8400760EE810AB1
:20A46000C0ED010ADDF84007D0ED020AA99890ED111A60EE810A90ED0F1ADDF8400760EE6D
:20A48000810AC0ED020ADDF84007D0ED030AA99890ED131ADDF8400760EE810AC0ED030AF8
:20A4A000DDF84007D0ED040AA99890ED131ADDF8400760EE810AC0ED040ADDF84007D0ED41
:20A4C000050AA99890ED131ADDF8400760EE810AC0ED050ADDF84007D0ED090A60EEA90AE4
:20A4E00060EE890AC0ED090ADDF84407D0ED060A60EE800AC0ED060ADDF84007D0ED0A0A4C
:20A5000060EEA90A60EE890AC0ED0A0ADDF84407D0ED070A60EE800AC0ED070ADDF84007F8
:20A52000D0ED0B0AA99890ED121ADDF8400760EE810AC0ED0B0ADDF84807E0B3DDF84007D5
:20A54000D0ED030A60EE890AC0ED030ADDF84407D0ED000A60EE800AC0ED000ADDF8400704
:20A56000D0ED040A60EE890AC0ED040ADDF84407D0ED010A60EE800AC0ED010ADDF84007E0
:20A58000D0ED050A60EE890AC0ED050ADDF84407D0ED020A60EE800AC0ED020ADDF84007BC
:20A5A000D0ED0A0A60EEA90A60EE890AC0ED0A0ADDF8440700E005E0D0ED070A20EE800ADC
:20A5C00080ED070A0021DDF844070926DDF8782701EB810302EBC302B0EC010AD2ED2E0A59
:20A5E000491C761E40EE000AC2ED2E0AEED19FED899A8DED679A9DED9F0AB1EE400A8DEDC4
:20A600006A0A9DEDA00A8DED6D0A9DED9F0A8DED680A8DED6B9A9DEDA10AB1EE400A8DED6B
:20A620006E0A9DEDA00AB1EE400A8DED690A9DEDA10A8DED6C0A8DED6F9A8DED7B9A9DEDD7
:20A640009E0AB1EE400A8DED7E0A9DED9D0A8DED810A9DED9E0A8DED7C0A8DED7F9A9DEDE2
:20A660009C0AB1EE400A8DED820A9DED9D0AB1EE400A8DED7D0A9DED9C0A8DED800A8DED7C
:20A68000839ADDF850070178DDF8780780F8FC11DDF850070178DDF8780780F8FD11DDF8CB
:20A6A00050070178DDF8780780F8FE11DDF850074178DDF8780780F8FF11DDF85007417849
:20A6C000DDF8780780F80012DDF850074178DDF8780780F80112DDF8480710B3DDF85007C5
:20A6E0004078F0B1A9984069B0F17E5F0CDDDDF8780780F8FF41DDF8780780F80042DDF8C1
:20A70000780780F801420CE0DDF87817012081F8FF01DDF8781781F80002DDF8781781F859
:20A720000102A9989DEDA30AD0ED100AF4EEC00AF1EE10FA1BDB53EC182B51EC1C0B08F05E
:20A74000DBF814D2DDF8780780F8FC41DDF8780780F8FD41DDF8780780F8FE41DDF87807CE
:20A7600080F80542DDF8780780F807422AE0DDF85007007860B1DDF87817012081F8FC014B
:20A78000DDF8781781F8FD01DDF8781781F8FE01DDF85007407860B1DDF87817012081F80F
:20A7A000FF01DDF8781781F80002DDF8781781F80102DDF87817012081F80502DDF8781771
:20A7C00081F80702DDF87807134FDFF8508090ED240A10EE100A3844404513D3DDF878079C
:20A7E00080F8FC41DDF8780780F8FD41DDF8780780F8FE41DDF8780780F80542DDF8780728
:20A8000080F80742DDF8400730EE4A0A08E000000AD7233C000000003333B3C13433F3018C
:20A82000B0EEC00AD0F8009010EE100A08F039F841EC1D0B484608F034F841EC100BB0EE2A
:20A840004D1AF0EE6D1A1CF057FA51EC100B08F06BF8DDF840170860DDF840174860DDF8DF
:20A8600040178860DDF8780790ED230A10EE100A3844404514D3DDF8780780F8FF41DDF8BA
:20A88000780780F80042DDF8780780F80142DDF8780780F80542DDF8780780F8064245E024
:20A8A000DDF8400770EE4AAA806A07F0FAFF41EC1D0BB0EEEA0A10EE100A07F0F2FF41EC3C
:20A8C000100BB0EE4D1AF0EE6D1A1CF015FA51EC100B08F029F8DDF840172AEEAA0A886285
:20A8E000DDF8400790ED031A61EE010AF4EEC00AF1EE10FA1AD210EE100AB0F17E5F15DD3F
:20A9000061EE000ADDF84007C0ED030ADDF84007D0ED040A60EE800AC0ED040ADDF8400772
