:020000040800F2
:2040000038ED00209D410008ADEA01082DA30108D7E50108E3470108AB0702080000000048
:2040200000000000000000000000000035FC0108235F010800000000B7EA01080D030208F7
:20404000B7410008B7410008B7410008B7410008B7410008B7410008B7410008B741000860
:2040600075620108B7410008B7410008B7410008B7410008B74100085D570108B7410008A3
:20408000B7410008B7410008B7410008B7410008B7410008B7410008B74100087B6201083A
:2040A000B7410008B7410008B74100085D030208B7410008B741000869030208B741000820
:2040C000B7410008B7410008B7410008B7410008B7410008B7410008B7410008B7410008E0
:2040E000B7410008B7410008B7410008B7410008B7410008B7410008B7410008B7410008C0
:20410000B7410008B741000875030208B7410008B7410008B7410008B7410008B74100081D
:20412000B7410008B7410008B7410008B7410008B7410008B7410008B7410008B74100087F
:20414000B7410008B7410008B7410008B7410008B7410008B7410008B7410008B74100085F
:20416000B7410008B7410008B7410008B7410008B7410008B7410008B7410008000000003F
:20418000B7410008B7410008DFF80CD00DF064FB00480047B133020838ED00200648804739
:2041A00006480047FEE7FEE7FEE7FEE7FEE7FEE7FEE7FEE7FEE7FEE7110302088941000888
:2041C00010B5D0ED010A90ED000A20EEA01A20EE000AD0ED020A60EEA00A31EE000A30EEE3
:2041E000800A10EE100A0DF0FDF841EC100B1DF0A7FF51EC100B0DF039F900EE100A10BDD4
:2042000090ED001AD0ED010A90ED022A90ED030A61EE011A61EE202A21EE023A21EE004A65
:2042200020EEA01A60EE823A60EE804A62EE020A22EE005A20EE002A08469FEDFE0A04228E
:2042400081ED000A80ED010A80ED020A0830521EF8D131EEC10A72EE855A72EEC52A30EEEE
:20426000600A30EE020A81ED000AB0EE000A65EE805A62EE802AC1ED035A73EE645A65EEE6
:20428000805AC1ED065AC1ED012A71EE612A72EEE02A72EE822AC1ED042A73EE842A62EEC2
:2042A000802AC1ED072A73EE242A62EE802AC1ED022A73EEC42A22EE800A81ED050AB1EEED
:2042C000610A30EE410A30EE200A30EE020A81ED080A704710B483B04FF0010CADF800C0B9
:2042E0009DF8002000216FF00043012A19BF4FF0FF32CDE90032D04ACDE900129DED000B74
:20430000CE4A82ED2A0BADF800C09DF80040012C08BFCB4B1366E4B2CA4BADF800C0012CE7
:2043200014BFCDE90031CDE900139DED000B4FF0FF4382ED260B9365ADF800C09DF800C092
:20434000C14BBCF1010F14BFCDE90031CDE900139DED000BBD4B82ED280BD36580F8CE183C
:2043600080F8CD1880F8CC1803B010BC70472DE9F0410D462DED048BB7EE009A044690ED05
:20438000000AD0ED040A30EE090A30EE600AD0ED080A30EE608ADFEDA79AB5EEC08AF1EEDF
:2043A00010FAD8BFB0EE698A94ED070AD4ED050A30EE600AB5EEC00AF1EE10FA34BF4FF059
:2043C000FF384FF0010894ED020AD4ED060A30EE600AB5EEC00AF1EE10FA34BF4FF0FF37BA
:2043E000012794ED030AD4ED010A30EE600AB5EEC00AF1EE10FA34BF4FF0FF36012618EEC9
:20440000100A0CF0EFFF41EC100B1DF099FE51EC100B0DF02BF800EE100AF6EE008A60EE70
:20442000280A00EE108AB8EEC00A20EE800A85ED000A94ED000AD4ED040A39EE400A30EE55
:20444000200AD4ED080A30EE600AB5EEC00AF1EE10FA04D9B4EE400AF1EE10FA01D0B0EE60
:20446000690A10EE100A0CF0BDFF41EC100B1DF067FE51EC100B0CF0F9FF00EE100A60EE9D
:20448000280A00EE107AB8EEC00A20EE800A85ED010A94ED000AD4ED040A39EE400A30EE04
:2044A000600AD4ED080A30EE200AB5EEC00AF1EE10FA04D9B4EE400AF1EE10FA01D0B0EE00
:2044C000690A10EE100A0CF08DFF41EC100B1DF037FE51EC100B0CF0C9FF00EE100A60EECD
:2044E000280A00EE106AB8EEC00A20EE800A85ED020A94ED000AD4ED040A30EE090A30EEF3
:20450000200AD4ED080A30EE200AB5EEC00AF1EE10FA07D9B4EE400AF1EE10FA08BFB0EEE6
:20452000408A01D0B0EE698A18EE100A0CF05AFF41EC100B1DF004FE51EC100B0CF096FF9A
:2045400000EE100A20EE280A85ED030ABDEC048BBDE8F0812DE9F04F3D4F07EB011407EB6C
:20456000021607EB031907EB0015B6F90620B4F908A0B6F90830B4F90680B4F90AB0B5F9B5
:204580000870B6F90A40B5F906C0B9F90610B9F90800B9F90A60B5F90A50A7EB030EABEB57
:2045A00004090EFB09FBA4EB050EAAEB030A0EFB0ABB00EE10BA01EE902AA5EB040BA8EB3C
:2045C0000205B8EEC01A0BFB05F8F8EEE11AA2EB0C0B0BFB098821EE212A00EE108A01EE64
:2045E000903AACEB020CF8EEC00AF8EEE11A0CFB0AF8A3EB070C0CFB058C00EEA12A00EED2
:2046000010CA01EE904A0022B8EEC00AF8EEE11A4FF0010C42F210740E4D00EE212AF1EE0D
:20462000421A21EE012A00EEA02A00EE002A12EE103A11E0000000000000F8FF900700202B
:204640000000C0FF0000F07F0000F0FF000080FFE84B0020A0860100FD4FDFF8F883DFF8CF
:20466000F893DFF8F8A3B3F19F4F70DABCEEC22A12EE103A002B31D0042B38BF62462DD387
:20468000A34238BF022218D3AB4238BF642214D3BB4238BF4FF49E720FD3434538BF4FF4F3
:2046A0007A720AD34B4538BF40F65A4205D3534534BF42F2107247F68632B3FBF2FC944555
:2046C0008CBFACEB0204A2EB0C04022C24BF62445208F2D2944598BF624692B202EE102A3A
:2046E00002EE900AB8EE423A02EE101AF8EEE22AB8EEC22A21EE022A00EEA22A02EE906A91
:20470000F8EEE22A00EE222A32EE212AB5EEC02AF1EE10FA02EE101AB8EEC22A21EE021AB5
:2047200002EE100AB8EEC22A00EE821A00EE906AF8EEE00A00EE201A3ABF31EE210AF1EE51
:20474000400A71EE210A80EE830A8CE0FFE702EE901A03EE100AF8EEE22AB8EEC33A61EEAF
:20476000222A40EE832A03EE106AB8EEC33A40EE032A32EEA13AF2EE042AC3EE223AF5EEB0
:20478000C03AF1EE10FA18D202EE901AF8EEE22A21EE221A02EE900AF8EEE22A00EEA21A4F
:2047A00000EE906AF8EEE00A00EE201A31EE210ABAEE041AC0EE010A15E003EE101AB8EE9A
:2047C000C33A21EE031A03EE100AB8EEC33A00EE831A00EE906AF8EEE00A00EE201A31EE78
:2047E000210AC0EE220A9FED9E0A82EE001ABCEEC10A10EE101A00292FD0042938BF624665
:204800002BD3A14238BF022018D3A94238BF642014D3B94238BF4FF49E700FD3414538BFC4
:204820004FF47A700AD3494538BF40F65A4005D3514534BF42F2107047F68630B1FBF0F283
:2048400082428CBF131A831A022B24BF10444008F4D2824298BF104682B200EE102AB8EE9A
:20486000401A80EE810A7F487F4AB0F90800C0EBC00182FB01218A10A2EBE17100EE901A88
:20488000F8EEE00AF4EEC00AF1EE10FA0CD2C00000EE900AF8EEE00AF4EEC00AF1EE10FA28
:2048A000C4BF012008F0C2B9002008F0BFB96D480021FA234FF47A72038142824181818123
:2048C000C181417101824166684A8166C166D16002F54C7191ED050ABDEEC00A80ED060A96
:2048E0007047634B188059809A807047604BD88019815A810020D86070472DE9F05FDFF84E
:2049000064915C4D4FF000082DED0A8B4646A5F1100499F80600002859D099F805004FF010
:2049200001089FED558B322821D099ED2C0B53EC182B51EC100B0CF081FD11D399ED2E0B03
:2049400053EC182B51EC100B0CF078FD08D399ED300B53EC182B51EC100B0CF06FFD02D25A
:20496000434806F057FC99F8050032282FD1DFF804C1B9F90A20ACF80020B9F90C10698080
:20498000B9F90E00A880B4F906309A1AB4F908305243591A01FB0121B4F90A20101A00FB91
:2049A00000100CF0E8FC41EC100B1DF0C9FB51EC100B0CF05BFD00EE100A85ED050ABDEE0E
:2049C000C00A89ED060AC9F8746089F80660B4F9060000EE100AB4F90800B8EEC0AA00EE9D
:2049E000100AB4F90A00F8EEC09A00EE100AB5F90000B8EEC09A00EE100AB5F90200F8EE52
:204A0000C0BA00EE100AB5F90400B8EEC0BA00EE100AF8EEC08A1FEDF98AD9F834000A2844
:204A2000DCBF401CC9F834000025154FDFF854A005EB450007EB800090ED000AD0ED010A40
:204A400090ED021A3AEE400A79EEE00A1CE0000040420F008096980000E1F50500CA9A3B45
:204A60000000C8429007002067666666E84B0020084F0020184F00200000000000C0624029
:204A8000004900200000A04020EE000A39EE411A00EEA00A01EE010A10EE100A0CF0A2FCEF
:204AA00041EC100B1DF04CFB51EC100B0CF0DEFC50451CDB6D1C0A2DBADBD9F8381001EB46
:204AC000410007EB800080ED00AAC0ED019A80ED029A481CF84981FB00218A10A2EBE17100
:204AE000494201EB810100EB4100C9F838009FEDF4ABD9F834000A28A4BFF34D0A2751DB36
:204B000095ED000AD5ED010A95ED021A30EE6B0A70EECB0A31EE681A20EE000A00EEA00A87
:204B200001EE010A10EE100A0CF05CFC41EC100B1DF006FBB0EE4A1AF0EE6A1A53EC112BDA
:204B400051EC100B0CF0A8FB41EC190B18EE100A0CF048FC53EC192B0CF07AFA0CF086FC3C
:204B600008EE100A0C357F1ECAD199ED060AB8EEC01AC8EE010AB8EEC01AC1EE081AF4EEA2
:204B8000E10AF1EE10FAF8EEC00A02DD88EE200A01E080EE880A6421BDEEC00A10EE100A1F
:204BA000484300D16420C9F87000822813D9D9F8740080B989F80560A9F81060C9F8646054
:204BC000C248C9F86860C9F86C60C6600120C9F8740089F80600BE4FD9F83C6007F1F0054B
:204BE0000A2E2CDAB4F900000CF0C5FB07EBC607C7E90001B4F902000CF0BDFBC7E9140176
:204C0000B4F904000CF0B7FBC7E92801B4F906000CF0B1FB05EBC605C5E90001B4F90800E2
:204C20000CF0A9FBC5E91401B4F90A000CF0A3FBC5E92801701CC9F83C0000F036B9A44E8F
:204C40009FEDA5CBB2464FF00A0BB0EE4C8AF0EE6C8AB0EE4C9AF0EE6C9A00BF9AED000B0B
:204C600051EC180B53EC102B0CF0F2F941EC180B0AF1080ABBF1010BF0D153EC1A2B51ECDC
:204C8000180B0CF009FB41EC180B4FF00A0A9FED94BB00BF96ED000B53EC182B51EC100B4C
:204CA0000CF077FA41EC100BB0EE4B1AF0EE6B1A08361CF005FC53EC1A2B51EC100B0CF0B6
:204CC000EBFA53EC192B0CF0C3F941EC190BBAF1010ADFD1B0EE490AF0EE690A1DF030FA84
:204CE000B0EE4C8AF0EE6C8A07F1500689ED2C0BB0EE489AF0EE689AB2464FF00A0B00BF06
:204D00009AED000B51EC190B53EC102B0CF0A0F941EC190B0AF1080ABBF1010BF0D153EC7B
:204D20001A2B51EC190B0CF0B7FA41EC190B4FF00A0A00BF96ED000B53EC192B51EC100B54
:204D40000CF027FA41EC100BB0EE4B1AF0EE6B1A08361CF0B5FB53EC1A2B51EC100B0CF0B6
:204D60009BFA53EC182B0CF073F941EC180BBAF1010ADFD1B0EE480AF0EE680A1DF0E0F9D8
:204D8000B0EE4C8AF0EE6C8A07F1A00A89ED2E0BB0EE489AF0EE689A56464FF00A0B00BF6B
:204DA00096ED000B51EC180B53EC102B0CF050F941EC180B0836BBF1010BF1D153EC1A2BBA
:204DC00051EC180B0CF068FA41EC180B5FF00A069AED000B53EC182B51EC100B0CF0D9F92C
:204DE00041EC100BB0EE4B1AF0EE6B1A0AF1080A1CF066FB53EC1A2B51EC100B0CF04CFA6D
:204E000053EC192B0CF024F941EC190B761EDFD1B0EE490AF0EE690A1DF092F989ED300BD6
:204E20005FF0000107EBC10090ED020B80ED000B90ED160B80ED140B90ED2A0B80ED280BF1
:204E400005EBC100491C90ED020B092980ED000B90ED160B80ED140B90ED2A0B80ED280B8C
:204E6000E0DBB4F900000CF086FAC7E91201B4F902000CF080FAC7E92601B4F904000CF0E2
:204E80007AFAC7E93A01B4F906000CF074FAC5E91201B4F908000CF06EFAC5E92601B4F93A
:204EA0000A000CF068FAC5E93A01404607F0C1BE07F0C5BE00000000676666660000000092
:204EC000000000000000244000490020E84B002078490020000000000000000000000000D1
:204EE0000000000000000040FB48407932280CBF0120002070470021F748F84A4171018282
:204F000041668166C166D1600121416781717047F3490A8802804A8842808A88828091EDC2
:204F2000020A80ED020A91ED030A80ED030A91ED040A80ED040A91ED050A80ED050A704720
:204F4000E74902880A8042884A8082888A8090ED020A81ED020A90ED030A81ED030A90EDE0
:204F6000040A81ED040A90ED050A81ED050A038841888288D84843818181C2813221417112
:204F8000704710B504462DED088BB0EEC09AF0EEE08AB0EEC18A9FEDD4ABB4EEE89AF1EE67
:204FA00010FAC4BFB4EEC89AF1EE10FA5ADDB5EEC00A18EE900AF1EE10FA2ADD0CF012FA3B
:204FC00053EC1A2B0CF0F3F841EC1B0B19EE100A0CF008FA53EC1B2B0CF030FA80F0F98060
:204FE00018EE100A0CF0FEF953EC1A2B0CF0DFF841EC180B19EE100A0CF0F4F953EC182B6B
:205000000CF01CFA38BF042080F0E380BDEC088B10BD0CF0E7F953EC1A2B0CF0C8F841EC3E
:205020001B0B19EE100A0CF0DDF953EC1B2B0CF005FA75D218EE100A0CF0D4F953EC1A2B23
:205040000CF0B5F841EC180B19EE100A0CF0CAF953EC182B0CF0F2F938BF052060D2BDEC17
:20506000088B10BDF4EEC88AF1EE10FA59DDF5EEC00A19EE100AF1EE10FA28DD0CF0B2F91A
:2050800053EC1A2B0CF093F841EC190B18EE900A0CF0A8F953EC192B0CF0D0F940D218EE17
:2050A000100A0CF09FF953EC1A2B0CF080F841EC190B18EE900A0CF095F953EC192B0CF050
:2050C000BDF938BF01202BD2BDEC088B10BD0CF089F953EC1A2B0CF06AF841EC190B18EE45
:2050E000900A0CF07FF953EC192B0CF0A7F970D218EE100A0CF076F953EC1A2B0CF057F8E7
:2051000041EC190B18EE900A0CF06CF953EC192B0CF094F938BF03205BD2BDEC088B10BDE1
:2051200057E0B5EEC01A18EE900AF1EE10FA28DD0CF058F953EC1A2B0CF039F841EC1B0BDC
:2051400018EE100A0CF04EF953EC1B2B0CF076F93FD219EE100A0CF045F953EC1A2B0CF010
:2051600026F841EC190B18EE100A0CF03BF953EC192B0CF063F938BF00202AD2BDEC088B46
:2051800010BD0CF02FF953EC1A2B0CF010F841EC1B0B18EE100A0CF025F953EC1B2B0CF088
:2051A0004DF916D219EE100A0CF01CF953EC1A2B0BF0FDFF41EC190B18EE100A0CF012F99C
:2051C00053EC192B0CF03AF93EBF0220BDEC088B10BD2046BDEC088B10BD70B50D462DEDF4
:2051E0000E8B43493C4C90ED000AD0ED018AD0ED029A90ED03AA91F85210206C92ED002A90
:20520000D2ED011A92ED021AF9B1B0EE688AF0EE408AF1EE699AB1EE411AF0EE420AB0EE93
:20522000610AFFF7AEFE20649FED33BB9FED34CB9FED35DB9FED360AF0EE00AA062849D29F
:20524000DFE800F00D10686D680DB0EE408AF0EE610AB0EE420AFFF794FE2064E4E795ED3C
:20526000009A94E068EE080A28EEA80A29EEA91A6AEE0A1A30EEC00A30EE410A30EE210A00
:2052800010EE100A0CF0AEF828EE280A41EC1E0B09EE8A0A20EE2A0A10EE100A0CF0A2F83B
:2052A00041EC100BB0EE4E1AF0EE6E1A1BF07CFE53EC1B2B51EC100B0BF079FF53EC1C2BDF
:2052C0000BF0EAFF53EC1D2B0BF063FF0CF0CEF809EE100A5BE0000090070020E84B0020EE
:2052E000184F002000000000B81E85EB51B8F63F28500020000000000000000000806640E5
:205300006F1283C0CA210940000000000080564000003443D5ED000A30EE809A37E028EED7
:20532000080A68EEA80A29EEA91A6AEE0A1A30EE600A30EE410A30EE210A10EE100A0CF0AF
:2053400051F828EE280A41EC1E0B09EE8A0A20EE2A0A10EE100A0CF045F841EC100BB0EE62
:205360004E1AF0EE6E1A1BF01FFE53EC1B2B51EC100B0BF01CFF53EC1C2B0BF08DFF53ECF8
:205380001D2B0BF065FE0CF071F809EE100AFF4919EE100A9FEDFE0A8842A8BF39EE409AC2
:2053A000B5EEC09AF1EE10FA38BF39EE009AB0EE490A07F047BC70BD2DE9F05F894682463B
:2053C00090460921F3480BF00CFEDFF8CCB30022CBF8C922CBF8CD228BF8D122CBF8D22288
:2053E000CBF8D6228BF8DA229AF80010A1F142001828204638BF203161F3070099F8001013
:20540000A1F14203182B38BF203161F3070698F80010A1F14203182B38BF203161F3070765
:205420009AF80110A1F14203182B38BF203161F30F2099F80110A1F14203182B38BF2031E0
:2054400061F30F2698F80110A1F14203182B38BF203161F30F279AF80210A1F14203182B78
:2054600038BF203161F3174099F80210A1F14203182B38BF203161F3174698F80210A1F14F
:205480004203182B38BF203161F317470124C3B2C049A51E732B08BFCD7013D00BDC642B29
:2054A00008BF8D710ED0652B08BF0C700AD06E2B08BFCC7006E0752B08BF8C7102D0772B42
:2054C00008BF0D70C0F30723732B08BF0D7113D00BDC642B08BFCD710ED0652B08BF4C7079
:2054E0000AD06E2B08BF0C7106E0752B08BFCC7102D0772B08BF4D70C0F30740732808BF17
:205500004D7113D00BDC642808BF0D720ED0652808BF8C700AD06E2808BF4C7106E075288C
:2055200008BF0C7202D0772808BF8D70F1B29B48732908BFC57013D00BDC642908BF8571BF
:205540000ED0652908BF04700AD06E2908BFC47006E0752908BF847102D0772908BF05704A
:20556000C6F30721732908BF057113D00BDC642908BFC5710ED0652908BF44700AD06E29C5
:2055800008BF047106E0752908BFC47102D0772908BF4570C6F30741732908BF457113D064
:2055A0000BDC642908BF05720ED0652908BF84700AD06E2908BF447106E0752908BF047264
:2055C00002D0772908BF8570F9B27548732908BFC57013D00BDC642908BF85710ED065291D
:2055E00008BF04700AD06E2908BFC47006E0752908BF847102D0772908BF0570C7F3072134
:20560000732908BF057113D00BDC642908BFC5710ED0652908BF44700AD06E2908BF0471C9
:2056200006E0752908BFC47102D0772908BF4570C7F30741732908BF457113D00BDC64298A
:2056400008BF05720ED0652908BF84700AD06E2908BF447106E0752908BF047202D07729C5
:2056600008BF85701646CBF8DB224E4FCBF8DF228BF8E32238461BF03BF9CBF8ED62CBF8D7
:20568000F1628BF8F5629AF800002246A0F14201182938BF203060F3070299F80010A1F1F8
:2056A00042001828204638BF203161F3070098F80030A3F142011829214638BF203363F380
:2056C00007019AF80130A3F1420CBCF1180F38BF203363F30F2299F80130A3F1420CBCF127
:2056E000180F38BF203363F30F2098F80130A3F1420CBCF1180F38BF203363F30F219AF8DB
:205700000230A3F1420CBCF1180F38BF203363F3174299F80230A3F1420CBCF1180F38BF38
:20572000203363F3174098F80230A3F1420CBCF1180F38BF203363F3174102F0FF0C1A4B97
:20574000BCF1730F08BFDD7018D00EDCBCF1640F08BF9D7112D0BCF1650F08BF1C700DD00C
:20576000BCF16E0F08BFDC7008E0BCF1750F08BF9C7103D0BCF1770F08BF1D70C2F3072CBD
:20578000BCF1730F08BF1D7129D00FE00000B4430000B443C053002000510020D2530020C6
:2057A000C9530020E4530020DB5300200EDCBCF1640F08BFDD7112D0BCF1650F08BF5C7053
:2057C0000DD0BCF16E0F08BF1C7108E0BCF1750F08BFDC7103D0BCF1770F08BF5D70C2F3F2
:2057E0000742732A08BF5D7113D00BDC642A08BF1D720ED0652A08BF9C700AD06E2A08BF07
:205800005C7106E0752A08BF1C7202D0772A08BF9D70C3B2FE4A732B08BFD57013D00BDC69
:20582000642B08BF95710ED0652B08BF14700AD06E2B08BFD47006E0752B08BF947102D0B1
:20584000772B08BF1570C0F30723732B08BF157113D00BDC642B08BFD5710ED0652B08BFF7
:2058600054700AD06E2B08BF147106E0752B08BFD47102D0772B08BF5570C0F3074073287E
:2058800008BF557113D00BDC642808BF15720ED0652808BF94700AD06E2808BF547106E0BF
:2058A000752808BF147202D0772808BF9570C8B2732808BFFD7013D00BDC642808BFBD712D
:2058C0000ED0652808BF3C700AD06E2808BFFC7006E0752808BFBC7102D0772808BF3D70EB
:2058E000C1F30720732808BF3D7113D00BDC642808BFFD710ED0652808BF7C700AD06E28A4
:2059000008BF3C7106E0752808BFFC7102D0772808BF7D70C1F30740732804BF7D7107F0F9
:205920008EB90EDC642804BF3D7207F088B9652804BFBC7007F083B96E2808BF7C7107F010
:205940007EB9752804BF3C7207F079B9772808BFBD7007F074B9AF4B93E80E1080E80E1009
:2059600070472DE9F047AD480026AB4C8667C66704F51275C830FEF7ADFC092104F59260CC
:205980000BF02FFB04F5E877A548C7F8C962C7F8CD6287F8D162C7F8D262C7F8D66287F8AA
:2059A000DA62FEF797FCC7F8DB62C7F8DF6287F8E36204F2B4401AF09BFFC7F8ED629948E6
:2059C000C7F8F16287F8F56290E8861004F17803F7EE000A83E8861090E80E1004F1880757
:2059E00087E80E1090E88C1004F1980181E88C1090E8861004F1A80383E8861090E88A10B2
:205A000004F1B80282E88A1090E88C1004F1C80181E88C1090E88E0004F1D80C8CE88E001B
:205A200090E88C1004F1E80181E88C10C4ED0F0A9FED7D0A84ED100A84ED110A84ED120AEE
:205A4000C4ED130A84ED140A84ED150A84ED160AC4ED170A84ED180A84ED190A84ED1A0A3A
:205A600084ED1B0A84ED1C0A84ED1D0A9FED6F1AF83484ED001A9FED6E1A84ED011A9FED69
:205A80006D1A84ED021A9FED6C1A84ED031AB2EE041A84ED041A9FED691A84ED051A9FEDDA
:205AA000681A84ED061A9FED671A012784ED071AB3EE0E1A84ED0E1A84F8207084F8217091
:205AC00084F8227084F8237084F8247084F8256084F8266084F827600A2184F8281028216B
:205AE00084F83C10C4ED0B0A84F834704FF0020884F8298084F8506084F8518084F85260E3
:205B00009FED511A84ED101A9FED501A84ED111A9FED4F1A84ED121A9FED4E1A4E4984EDD3
:205B2000131A303081ED280A81ED290A81ED2A0A90E80E1005F1780989E80E1090E80E10C3
:205B400005F1880989E80E1090E80E1005F1980989E80E1090E80E1005F1A80989E80E10A7
:205B600090E80E1005F1B80989E80E1090E80E1005F1C80989E80E1090E80E1005F1D809F0
:205B800089E80E1090E80B1005F1E80282E80B10C5ED0F0A85ED100A85ED110A85ED120A0C
:205BA000C5ED130A85ED140A85ED150A85ED160AC5ED170A85ED180A85ED190A85ED1A0AD1
:205BC00085ED1B0A85ED1C0A85ED1D0ADFED170A04F51275C5ED000ADFED150AC5ED010A2C
:205BE000DFED140AC5ED020ADFED130AC5ED030AF2EE040AC5ED040ADFED100AC5ED050A00
:205C0000DFED0F0AC5ED060ADFED0E0A26E00000ED530020A4480208304F00209007002047
:205C20002811002074480208000000008195633F21B02A40CFF7133F83C02A3F00007042DC
:205C400000001642295C0F3E282C713927A0093A0742B239CDCCCC3D58080020C5ED070AF9
:205C6000F3EE0E0AC5ED0E0A85F8207085F8217085F8226085F8237085F8247085F8256024
:205C800085F8266085F827600A2085F82800282085F83C0085ED0B0A85F8347085F829805F
:205CA00085F8506085F851805FED190A85F85260C5ED100A5FED1B0AC5ED110A5FED1C0A4F
:205CC000C5ED120A5FED1D0AC5ED130AFE48A0F6741280ED280A80ED290A80ED2A0AA0F6DC
:205CE0007811A0F67C10FFF767FB9FEDF80AF7EE080A85ED000A1FED301AC5ED010A85ED1B
:205D0000031A9FEDF31A85ED101ADFEDF21AC5ED111A9FEDF12A5FED312A85ED122A85F803
:205D2000518085F8526085F82170C5ED132A85F8226085F8237085F8247084ED000AC4ED1A
:205D4000010A1FED430A84ED030A84ED101AC4ED111A84ED122A84F8518084F8526084F846
:205D600021801FED440A84ED130A84F8227084F8237084F82470BDE8F087002808BF7047AB
:205D800090ED000AD54981ED000A90ED010A81ED010A90ED020A81ED030A90ED040A81EDE8
:205DA000100A90ED050A81ED110A90ED060A81ED120A90F8282081F8512090F8352081F88D
:205DC000522090ED000AA1F5127181ED000A90ED010A81ED010A90ED020A81ED030A027BB7
:205DE00081F8212090ED070A81ED100A90ED080A81ED110A90ED090A81ED120A90F82820D1
:205E000081F8512090F8352081F85220B44A816B9162B44990F829200A700A1D90F82D309F
:205E2000137001F1080390F831C083F800C090F82AC081F801C090F82EC082F801C090F849
:205E400032C083F801C090F82BC081F802C090F82F10917090F83300121D9870111F081F55
:205E6000FFF7AABA0021002808BF704730B49E4A9C4C92ED000A80ED000A92ED010A80ED56
:205E8000010A92ED030A80ED020A92F82130037302F5127393ED100A80ED040A93ED110A75
:205EA00080ED050A93ED120A80ED060A92ED100A80ED070A92ED110A80ED080A92ED120A82
:205EC00080ED090A92F8513080F8283092F8522080F83520824A231D03F1040C926A8263AD
:205EE0004218655C82F829505D5C82F82D501CF80150491C82F831500329F1DB08440022B9
:205F000080F8292080F82D2080F8312030BC7047734890F878007047714890F87C007047A9
:205F20006F490028886708BF70476748FEF7D2B96B490028C86708BF70476C48FEF7CAB930
:205F400070B504462DED048B00680BF04BFA9FED688B53EC182B0BF02AF99FED679B53EC95
:205F6000192B0BF099F90BF081FA0546206060680BF038FA53EC182B0BF019F953EC192B08
:205F80000BF08AF90BF072FA6060A0680BF02AFA53EC182B0BF00BF953EC192B0BF07CF9C1
:205FA0000BF064FA5149A06001F50D60C1F8A05094ED010A81ED290A94ED020A81ED2A0A86
:205FC00094ED000A80ED280A94ED010A80ED290A94ED020A80ED2A0ABDEC048B70BD10B513
:205FE00004463F482DED048BC06F68B13F4890ED280A84ED000A90ED290A84ED010A90ED85
:020000040800F2
:206000002A0A84ED020A0CE02F4890ED280A84ED000A90ED290A84ED010A90ED2A0A84EDF4
:20602000020A20680BF0DEF99FED338B53EC182B0BF0BDF89FED2E9B53EC192B0BF02CF986
:206040000BF014FA206060680BF0CCF953EC182B0BF0ADF853EC192B0BF01EF90BF006FA7D
:206060006060A0680BF0BEF953EC182B0BF09FF853EC192B0BF010F90BF0F8F9A060BDEC76
:20608000048B10BD9FED1E0AD0ED004A91ED031AF0EE400A90ED014A44EE810A91ED025AC7
:2060A000D1ED015AD0ED023A91ED006AF1EE652A44EE050A90ED033AF1EE451AB1EE462A30
:2060C00043EEA20A1EE00000281100206666663F17B7513A3480373A3480373B7052002095
:2060E00090070020AC07002028500020580800206F1283C0CA2109400000000000806640E0
:206100000000000043EE060AC2ED000AF0EE400A44EEA10A44EE010A43EE860A43EE250A22
:20612000C2ED010AF0EE400A04EE820A44EEA50A04EE220A44EE020A03EEA10A43EE810A6A
:2061400003EE010A43EE050AC2ED020A82ED030A704790ED000AD0ED010A30EE800AD0ED61
:20616000020A30EE800A70472DE9F00390E8F81389B08DE8F813036A089390ED000AD0ED23
:20618000010A0127B0EEC00AF0EEE00A0223F4EEC00A4FF0030CF1EE10FA03DD0227B0EEED
:2061A000600A0123D0ED020AF0EEE00AF4EEC00AF1EE10FA03DD032702234FF0010C00EBC5
:2061C000830400EB870014ED010A50ED010A6E4606EB830080EE201A06EB8C0406EB8705A4
:2061E00000ED011A14ED010A55ED010A80EE201A04ED011A90ED020A50ED010A95ED021A1B
:2062000000EEC10A80ED020A94ED020A54ED010A95ED021A00EEC10A84ED020A90ED050A13
:2062200050ED010A95ED051A00EEC10A80ED050A94ED050A54ED010A95ED051A00EEC10A0A
:2062400084ED050A94ED020AD0ED020AB0EEC00AF0EEE00AB4EEE00AF1EE10FA02DD184686
:206260006346844606EB8C0406EB830694ED020A96ED021A01EB870701EB8303C0EE010ADF
:2062800001EB8C00C4ED020A94ED052A96ED050A00EEC02A84ED052A17ED010A82ED000A87
:2062A00013ED011A56ED013A00EE631A82ED011A10ED013A54ED011A00EE613A01EE603AAA
:2062C000C3EE022AC2ED022AD6ED054A96ED025A95ED053A02EEE41A02EEC30A81EE054AEB
:2062E00082ED014AD5ED022A04EE620A15ED014A80EE041A82ED001A97ED020A82ED030A2A
:2063000093ED021A00EE631A82ED041AD0ED025A40EE615A41EE605A85EE826A82ED056AC1
:2063200006EE641A06EE430AC1EE055AC2ED045A05EEE20A80EE041A82ED031A97ED050A05
:2063400082ED060A93ED051A00EE631A82ED071AD0ED053A40EE613A41EE603AC3EE820A59
:20636000C2ED080A00EEE41A00EEC30AC1EE050AC2ED070A00EEE20AC0EE040AC2ED060AE2
:2063800009B0BDE8F003704770B50D462DED048BB0EE408A0446D0ED008AF4EEC88AF1EEC8
:2063A00010FA22BF91ED000ABDEC048B70BD94ED0C9AB4EEC89AF1EE10FADEBF91ED0C0AC0
:2063C000BDEC048B70BDF84890ED2A0B51EC100B0BF04CF800EE100AF4EEC88AF1EE10FAAA
:2063E00084BFBDEC048B70BDB4EEC89AF1EE10FABCBFBDEC048B70BD012302210D201A1882
:20640000520804EB820C1CED010AB4EEC80AF1EE10FA9ABF1346511C10468842EFD8581CBA
:2064200004EB800105EB800051ED010A04EB830111ED010A70EEC00A38EE400A80EE201A77
:2064400050ED010A05EB830010ED010ABDEC048B70EEC00A01EE200A70BD90ED000AD0ED8F
:20646000010A30EE800AD0ED020A30EE800AD0ED030A30EE800A704770B500260C463546B7
:206480003146F3EE0E1AB3EE0D2A761C00EB860303F1080213ED011AD3ED022A4FF00E0C40
:2064A00015F1010532EE810AD2ED030A30EE800AD2ED060A1832BCF1010C30EE800AF3D172
:2064C000C0EE210A03F108025FF00E0331EE600A32EEE01A20EE000A01EE010A92ED031A34
:2064E00031EE601A01EE010A92ED061A18325B1E31EE601A01EE010AF0D104EB8502491C78
:20650000C0EE020A032942ED010ABEDB20680AF069FF41EC100B1BF013FE51EC100B0AF022
:20652000A5FF206060680AF05DFF41EC100B1BF007FE51EC100B0AF099FF6060A0680AF015
:2065400051FF41EC100B1BF0FBFD51EC100B0AF08DFFA06070BD2DE9FF5F07462DED0C0BA3
:2065600092482DED108BADF5D36D0DF1C409F0EE40EAB0EE44CAF0EE64CAB0EE43DAF0EE86
:2065800063DAF0EE618AB0E87E1189E87E11B0E81E1039AD0DF5BF6985E81E10B0E87E1136
:2065A00089E87E11B0E81E100DF5C3650DF5847985E81E10B0E87E1189E87E11B0E81E1064
:2065C0004AAD0DF5C96985E81E10B0E87E1189E87E11B0E81E100DF5CD650DF1200985E840
:2065E0001E10B0E87E1189E87E1170E87112CDE9101200F5E6710DF5127991E87E1189E841
:206600007E11D0E97B12CDE99A1200F5FA710DF5A07991E87E1189E87E11D0E98512CDE9BA
:20662000581200F507700DF50B78B0E87E1088E87E1090E83F1074AEF0EE41BA86E83F105C
:20664000DDF868070024B0EE60EA0470DDF86C070470DDF870070470DDF80C0790ED000A8B
:20666000534880ED000ADDF80C1791ED010A80ED010A91ED020A80ED020A0846FDF7A0FD2D
:20668000494D85ED240A85ED250ADDF81007FDF797FDDDF80C07B0EE40BA90ED000A8DED2E
:2066A000840A8DEDA10AD0ED010ACDED850ACDEDA00AD0ED020ACDEDA20ACDED9F0ADDF84B
:2066C0001007D0ED001ACDED861A81EE8B1ACDED9C1AD5ED240AC0EE20AA8DED001A90ED75
:2066E000010A8DED880A8DED9D0ADDF80C07D0ED011A81EEA0AAC0EE0B1ACDED011ADDF86C
:20670000100790ED020A8DED870A8DED9E0ADDF80C0790ED022AC2EE209AC0EE0B0ACDED34
:20672000020A9FED248ADDF87807DFED23FAB0EE489A90F8CD180AEE819A00F10C0900F1DF
:206740000808001DCDF87C06DDF878070AEE219A00F50060CDF8F405DDF87807012600F53B
:20676000806009EEA09AA990002940F0F581DDF87807B7EE00FA80F83040DDF8780780F859
:20678000CD68DDF8780780F83160DDF8780780ED0ECB8DED3E8A8DED3F8A8DED408A0020E4
:2067A0008DED418A092279E090070020D448020828540020000000000AD7A33C00281CBFD4
:2067C000042808286AD0DDF8781701EB800181ED108A401C521EF1D100210846DDF87827D9
:2067E000801C02EB8102491C82ED198ADDF8782702EB8102491C82ED198A0C28EEDBDDF8E9
:20680000780780ED258ADDF8780780ED268ADDF8780780ED278A9FEDFE0ADDF8780780EDA5
:206820002B0ADDF8780780ED2CFADDF8780780ED2DFADDF8540790ED000A4FF00000B5EEBB
:20684000C00AF1EE10FA14BF51225121B1EE040A14BFF04BEF4A28D182FB003C4FEAAC033F
:20686000A3EBEC735B4203EB830310EB4303DDF8783703EB80030CBF83ED2E0A83ED2E8A49
:20688000401C491EE8D1DDF87807314600F5FE701AF033F80020092100F040BCDDF878177F
:2068A00001EB800181ED10FA93E783FB00C14FEAA10CACEBE171494201EB810110EB410135
:2068C000DDF8781701EB80010CBF81ED2E0A81ED2E8A401C521EE8D1D5E700281CBF0428E0
:2068E000082800F01B84DDF8782702EB800282ED858A00BFDDF8782702EB800282ED8E8A4F
:20690000401C491EE9D10020DDF87827891C02EB8002401C82ED978ADDF8782702EB800283
:20692000401C82ED978A5A29EEDBDDF87807B0EE000A80EDF18ADDF8780780EDF28ADDF829
:20694000780780EDF38ADDF8780780EDF48ADDF8780780EDF58ADDF8780780EDF88ADDF837
:20696000780780EDFB8ADDF8780780EDFE8ADDF8780780EDF68ADDF8780780EDF98ADDF803
:20698000780780EDFC8ADDF8780780EDFF8ADDF8780780EDF78ADDF8780780EDFA8ADDF8DF
:2069A000780780EDFD8AA99880ED008AA99880ED018AA99880ED028AA99880ED038AA9983D
:2069C00080ED048AA99880ED058AA99880ED068AA99880ED078AA99880ED080AA99880ED94
:2069E000098ADDF87C0600F5806080ED098A08F5806080ED098A09F5806080ED098AA998DC
:206A000080ED0D8AA99880ED0E8AA99880ED0FFA51EC1C0B0AF02AFD00EE100AA998322154
:206A200020EE2F0A0DF17C094FF0000C80ED100AA998634680ED118AA99880ED12FAA998CD
:206A400080ED138ADDF87807C0F85044DDF87807C0F85444DDF87807C0F85814DDF878071C
:206A6000C0F85C44DDF80C0790ED000ADDF81007D0ED001ADDF8140790ED003ADDF80C07FD
:206A8000D0ED010ADDF8100790ED012ADDF81407D0ED013ADDF80C0790ED021ADDF8100745
:206AA000D0ED022ADDF8140790ED024A89EC090ADDF8780700F58C6808EB8C0199ED000A5F
:206AC000484681ED000A042290ED010A81ED010A90ED020A083081ED020A0831521EF3D1E1
:206AE0005B1C0CF1090C1E2BE6DBDDF854074FF47A7190ED000ADDF8F40580ED260ADDF8DE
:206B0000540790ED010ADDF8F40580ED270ADDF8540790ED020ADDF8F40580ED280ADDF82B
:206B2000780780F8A448DDF87807A0F8A648DDF87807A0F8A848DDF87807A0F8AA18DDF839
:206B4000780780F8AD48DDF8780780F8AE48DDF87807C0F8B04800BF97E80F003EAC84E8E0
:206B60000F00DDF8780780ED0ECB51EC1C0B0AF07DFC00EE100ACDF8F005A99820EE2F0A4B
:206B800080ED100A2448A999B0EE480AD0ED001AD1ED180A90ED012A90ED031A01EEA00A3E
:206BA000D1ED210A91ED3C3AF0EE402A90ED020A42EE202AD1ED2A0A40EE202AD1ED330A48
:206BC00041EE202AD0ED040ADDF8780740EE832AC0EDF82AA998F0EE482A90ED193A41EEE3
:206BE000832A90ED223A42EE032A90ED2B3A40EE032A90ED343A41EE032A90ED3D3ADDF865
:206C0000780740EE832AC0EDF92AA99806E000006666663F67666666F819002090ED1A3A17
:206C2000F0EE482A41EE832A90ED233A42EE032A90ED2C3A40EE032A90ED353A41EE032A6B
:206C400090ED3E3ADDF8780740EE832AC0EDFA2AA998F0EE482A90ED1B3A41EE832A90ED83
:206C6000243A42EE032A90ED2D3A40EE032A90ED363A41EE032A90ED3F3ADDF8780740EE59
:206C8000832AC0EDFB2AA998F0EE482A90ED1C3A41EE832A90ED253A42EE032A90ED2E3A17
:206CA00040EE032A90ED373A41EE032A90ED403ADDF8780740EE832AC0EDFC2AA998F0EE17
:206CC000482A90ED1D3A41EE832A90ED263A42EE032A90ED2F3A40EE032A90ED383A41EEF9
:206CE000032A90ED413ADDF8780740EE832AC0EDFD2AA998F0EE482A90ED1E3A41EE832A2A
:206D000090ED273A42EE032A90ED303A40EE032A90ED393A41EE032A90ED423ADDF878075D
:206D200040EE832AC0EDFE2AA998F0EE482A90ED1F3A41EE832A90ED283A42EE032A90EDA7
:206D4000313A40EE032A90ED3A3A41EE032A90ED433ADDF8780740EE832AC0EDFF2AA998E0
:206D6000F0EE482A90ED203A41EE832AD0ED291A42EE212AD0ED321A40EE212A90ED3B0A51
:206D800041EE002A90ED440A40EE802AC0ED002ADDF8780700F57870FDF712FA85ED200A53
:206DA000DDF8780700F57B70FDF70AFA85ED210ADDF8780700F57E70FDF702FA85ED220A45
:206DC000A998D5ED200AF0EE691AC0ED010AA998D5ED210AB0EE4A2AC0ED020AA998B0EE95
:206DE0006A1A80ED030ADDF87807DDED000AC0ED900ADDED013ADDF8780763EEA12AC0ED04
:206E0000933A9DED020ADDF8780740EE422A20EE013A80ED960ADDF8780720EE820A00EEEF
:206E2000E13AC0ED8F2ADDF8780703EEC10A62EEA20A80ED923ADDF8780723EE031A80ED9D
:206E4000950A60EE001A31EE200A31EE800A10EE100A0AF0C7FA41EC100B1BF071F951EC6C
:206E6000100B0AF003FB00EE100ADDF8780728AAD0ED8F0AC0EE801AC0ED8F1ADDF8780789
:206E8000D0ED920A80EE801A80ED921ADDF8780790ED952AC2EE000AC0ED950ADDF878078E
:206EA00090ED960AD0ED932A90ED902A21EE003A00EEE23A60EE820A41EEC00A21EEA20A23
:206EC00080ED8E3ADDF8780701EE420AC0ED910ADDF8780780ED940ADDF8780700F50E717F
:206EE00000F50570FFF740F912A928A8FDF73FFA00211D22DDF87837A1EB810003EB8000E2
:206F0000491C90EDEB0A521E80EDEE0A90EDEC0A80EDEF0A90EDED0A80EDF00AEAD1DDED8C
:206F2000120AB0EE000ADDF8780720EE801A0DF5D061C1EE280AC0ED970ADDED130ADDF873
:206F4000780720EE801AC1EE280AC0ED980ADDED140ADDF8780760EE800A80EEA80A80ED39
:206F6000990ADDF8780700F51770FFF785FA0DF5D060FDF725F9DDF878070DF2CC5EF6EE84
:206F8000008A80EDF10ADDF8780700F51770CDF83006DDF8780700F57270CDF844060020DA
:206FA000CDF82C06CDF89006CDF88C06FC48D0ED171A90ED161A00BFDDF890060123401C9F
:206FC0000146CDF89006DDF82C06AAAA401CCDF82C06DDF83006F44600EB8100011F0DF291
:206FE000AC541E204FEA030591ED000A401EA2EC010A0CF8015B04F8013B01F10C0103F108
:207000000103F1D10DF2AC53AAA9821C01EB800401EB8202D4ED000A12ED010AF4EEC00A5A
:20702000F1EE10FA09D9B4EE400AF1EE10FA04D1821C1A54441C1A185470801C1E28E4DBD8
:207040000220A8904000CDF83C06A898012500F1010CBCF11F0F71DADDF83C266146AB1864
:2070600028461F2B02F3828601225E1B012E47DB0DF2AC5404EB000BAAAF1BF9018C04EB8C
:20708000010A07EB880959ED010A1AF9019C07EB890717ED010AF4EEC00AF1EE10FA4ED914
:2070A000B4EE400AF1EE10FA49D10EEB0207491C07F8019C994220D1604582F26986ACEB73
:2070C0000009B9F1000F18DD7F1EABF1020419F0010F02D007F8018F641C5FEA69080AD02C
:2070E00094F801A087F801A014F802AF07F802AFB8F10108F4D14A444844521C9642B7DA6E
:207100006D1E721E002A55DD0DF2AC512944491EAEF1010016F0010F3ED139E0DDF87827D6
:20712000002802EB800282ED85FA1ABF0428082882ED8EFA3FF4E4ABFFF7DCBB4AE00EEB2C
:207140000207401C07F8018C6045D6D1994282F21086A3EB0108B8F1000FCEDD7F1EAAF1DB
:20716000020418F0010F02D007F8019F641C5FEA68090AD094F801A087F801A014F802AF62
:2071800007F802AFB9F10109F4D142444144B4E710F801CF01F801CF90F901C0521009D0FA
:2071A00010F8024F81F801C090F901C001F8024F521EF5D1701E05D41EF800102A180DF2A4
:2071C000AC508154A8981D4603EB000CBCF11F0FFFF642AFDDF83C06A8901E287FF732AF94
:2071E0009DF9C915AAA800EB810111ED010AB4EE400AF1EE10FA3CD19DF9BA1500EB81019F
:2072000011ED010AB5EEC00AF1EE10FA34BF012200229DF9BB1500EB810050ED010AF5EEDA
:20722000C00AF1EE10FA34BF0120002082421CD1B4EE410AF1EE10FA1EBFB0EE402AB4EE59
:20724000612AF1EE10FA10D0F4EE410AF1EE10FA1FBFB0EE602AB4EE612AF1EE10FA70EE4A
:20726000C00A18BF00EEA80A03D130EE200A20EE280ADDF84416DDF82C0601EB800000EDE2
:20728000010ADDF88C06401CCDF88C060328FFF693AEDDF8780700F57270FCF791FFF0EEDC
:2072A000400AB1EE000A3E4DCDEDA80A6EEE800AD5ED201AA998DFED3DFA81EEA01A6EEE39
:2072C000000A80ED091A95ED212AA998C2EE201A6BEE800AC0ED0A1A95ED220AA998C0EECB
:2072E000201AC0ED0B1ADDEDA80AF6EE001AA99860EEA10AC0ED0C0ADDF8780700F2244061
:20730000D0ED010A70EE810A90ED021A71EE200A90ED031AA99871EE200AB5EE001A60EE2B
:20732000810A9FED201AC0ED0D0A62EE210AA99840EE010A9FED1C0A20EE80FA80ED06FA9C
:20734000DDF8786796F8CE0848BB01209FED188B002486F8CE08052706EB840000F5006054
:2073600080ED2EFA06EBC40090ED020B51EC180B53EC102B09F06CFE41EC180B641C7F1E8F
:20738000EAD14FF0050800BF06EBC70453EC182B94ED020B51EC100B09F07EFF0CE011E0B0
:2073A000900700203333333FCDCC4C3F0000000000000000000000007F1CC4E90201B8F126
:2073C0000108E1D15FF0040406EB840000F5006090ED2D8A80ED2E8A06EBC40090ED020B39
:2073E00051EC100B0AF042F800EE100A601E10F0FF0440EE08FAE7D106F5006080ED2EFAA0
:2074000096ED020B51EC100B0AF030F800EE100AA9981FED198B40EE0FFA53EC182BC0ED03
:2074200007FACDEDA3FA51EC1C0B09F0EFFF08D8A998B7EE000A80ED110AA99880ED130A86
:207440001DE09FEDF90B51EC1C0B53EC102B09F0DDFF66D1A9980DF5BF6190ED070A31A8EB
:20746000FEF792FFA9980DF5C96180ED110A9DEDA30A42A8FEF788FFA99880ED130AA998E8
:2074800090ED110A80ED120ADDF87807D5ED240A90ED2D0A30EEC00AB0EEC00A10EE100A6B
:2074A00009F0A0FF41EC100B19F082FE51EC100B09F07FFFDDF868170870DDF87807D5EDB2
:2074C000240ADB4990ED2D0A30EEC00AB0EEC00A85ED230A90ED2B1AA99839EE411AB0EE94
:2074E000C11A30EE010A80ED0E0A10EE100A884259DB9FEDD01AA998CF4970EE411AB0EEC7
:20750000081AB7EE000A01EE810A80ED0F0A10EE100A88424CDDA998B1EE040A80ED0F0A1B
:2075200046E0DDF8F005DDED310A00EE100A31AA42A920EE200A06238DED310A00EE100A6A
:20754000DDED420A20EE200A8DED420ADDF8F005D2ED010A01EE100A91ED010A61EE200A78
:20756000C2ED010ADDF8F00500EE900A20EE800A81ED010ADDF8F00592ED021A00EE900A01
:2075800091ED020A60EE810AC2ED020ADDF8F005083200EE900A20EE800A81ED020A0831F6
:2075A0005B1ED3D156E7A998B7EE000A80ED0F0AB7EE00FA30EECF0AB0EEC00A10EE100AE5
:2075C00009F010FF9FED9E1B53EC112B09F0E1FD41EC100B8DEDA60BA998C06B09F002FF33
:2075E00041EC100B9DEDA61B19F06EFE51EC100B09F03CFFA999C863DDF8780790F831007D
:2076000000287CD0DDF8780790F83000002876D1A998F6EE000A90ED0D1A0DF5806090ED49
:20762000BA0A20EE200AB4EEC01AF1EE10FA66D2DDF87807DDED001AC0ED121ADDF878074C
:207640009DED011A80ED151ADDF878079DED020A80ED180A5FEDABFA61EE290ADDF87807A9
:2076600040EE4A0A20EE2A0A01EEE90A61EE8A1AC0ED110ADDF8780760EEA00A41EE6A1AAA
:2076800020EE001A80ED140ADDF8780771EE200A21EEA10AC0ED171A30EE200A10EE100A62
:2076A00009F0A0FE41EC100B1AF04AFD51EC100B09F0DCFE00EE100ADDF87807D0ED110A3B
:2076C000C0EE802AC0ED112ADDF8780790ED141AC1EE000AC0ED140ADDF8780790ED171AE5
:2076E00081EE003A80ED173ADDF8780790ED180A90ED122AD0ED151A20EE801A00E047E0DC
:2077000003EE611A23EE023A3EA902EEC03A22EEA10A80ED101ADDF8780700EEC20A80ED12
:20772000133ADDF8780780ED160ADDF878074030FCF71DFEDDF878074349B1EE040A80ED4F
:207740002B9ADDF8780780ED2CBA0020512200BF81FB00C34FEAA30CACEBE3735B4203EBCC
:20776000830310EB4303DDF8783703EB80030CBF83ED2E0AC3ED2EFA401C521EE8D1DDF8A8
:207780007817002081F83100DDF87017012008703EAC5AAE94E80F005AAC84E80F00DDF8C8
:2077A0007807801B10F1900144BF6FF08F01091A24292CDA10F1900F29D0DDF8780790ED4B
:2077C000250A01208DED5E0ADDF8781701EB800206EB800192ED250A801C81ED040A92EDEE
:2077E000260A092881ED050AEEDB00204FEA000406EB800191ED000AB4EE400AF1EE10FAB6
:2078000026D000200921DFED11FA00F014BDDDF87807242200F1940106F1100009F0B9FBBC
:20782000E3E7000000000000000000000000F03FCDCCCC3DCDCCCC3D0000A040000000002B
:20784000000000000000E03F6766666600000000401C0D28CCDB9DED3E0AB5EEC00AF1EE1A
:2078600010FA02BF9DED3F0AB5EEC00AF1EE10FA0DD19DED400AB5EEC00AF1EE10FA02BF4B
:207880009DED410AB5EEC00AF1EE10FAB9D053EC182B51EC1D0B09F0B9FD7CD0A998F0EE33
:2078A000000A90ED0D1A0DF5806090EDBA0A20EE200AB4EEC10AF1EE10FA6CDDDDF87807CC
:2078C0009DED001A5FED1FFA80ED121ADDED011ADDF8780761EEA90AC0ED151A9DED020A59
:2078E000DDF8780740EE4A0A80ED180A20EE2A0ADDF8780701EE690A21EE0A1AC0ED110A30
:20790000DDF8780760EEA00A01EEEA1A80ED140ADDF8780720EE000A80ED171A21EE011A69
:2079200030EE200A31EE000A10EE100A09F05AFD41EC100B1AF004FC51EC100B09F096FD38
:2079400000EE100ADDF8780790ED111AC1EE000AC0ED110ADDF87807D0ED141A81EE801A5A
:2079600080ED141ADDF8780790ED172AC2EE001AC0ED171ADDF8780790ED182A90ED153AD3
:20798000D0ED122A21EE020A01EEC30A61EEA21A40EEC21A00E04DE060EE830A80ED100A93
:2079A000DDF878073EA941EE620AC0ED131ADDF87807C0ED160ADDF878074030FCF7D7FC6C
:2079C000DDF8701701200870DDF8780780ED2B9ADDF8780795ED240A80ED2D0ADDF8780730
:2079E000C0ED2EFADDF87807C0ED37FADDF87807C0ED40FADDF87807C0ED2FFADDF87807C7
:207A0000C0ED38FADDF87807C0ED41FADDF87807C0ED30FADDF87807C0ED39FADDF8780798
:207A2000C0ED42FADDF87807C0ED6AFADDF87807C0ED7EFA1FED7BAADDF87807F0EE4A9A38
:207A4000C0ED259ADDF87807C0ED269ADDF87807C0ED279ADDF8780700F140013EA8FCF7D8
:207A6000CFFBDDF87807B7EE000AD0ED2B0A00EEE00A10EE100A09F0B5FC41EC100B1AF05B
:207A80005FFB51EC100B09F0F1FC00EE900ADDF87807B0EE690AD0ED101A90ED2B1A01EEC9
:207AA000A00AD0ED111A01EEA90AF0EE401A90ED120A40EE011AB0EE690AC0ED821ADDF849
:207AC000780790ED132A02EE200AB0EE402A90ED140A00EE292A90ED150A00EE012AB0EE1C
:207AE000690A80ED832ADDF87807D0ED162A02EEA00AF0EE400A90ED170A40EE290A90ED6A
:207B0000180A40EE010AC0ED840A9DED840A70EE610A9DED850A30EE420A8DED010ADDF811
:207B200078079DEDA20A90ED841A30EE410A8DED020AC0ED190ADDF878079DED010A80ED60
:207B40001A0ADDF878079DED020A80ED1B0ADDF8780790ED101AFE49B0EE690AD0ED111A4A
:207B600091F9002091F9010000EE902A91F90210DDF87837F8EEE00A01EE200A01EE100A16
:207B8000B8EEC11AF0EE400A00EE101A41EE810A93ED121AB8EEC00A41EE000A9DED860AFB
:207BA00030EE601A00EE102A8DED001AB8EEC00AD3ED131AF0EE690A08AD41EE800A00EE67
:207BC000100AD3ED141A92AEB8EEC00A41EE800A00EE101AD3ED151AB8EEC00A41EE800A04
:207BE0009DED880A30EE600A8DED010A00EE102AD3ED160AB8EEC00A40EE809A00EE100A94
:207C0000D3ED170AB8EEC00A40EE809A00EE101AD3ED180AB8EEC00A40EE809A9DED870AFE
:207C200030EE690A8DED020A83ED1C1ADDF878079DED010A80ED1D0ADDF878079DED020A20
:207C400080ED1E0ADDF8780780ED229ADDF8780780ED23BABF48DDF8781790ED240A81EDF0
:207C6000240ADDF8781791ED2C0AA9993BEE400AB0EEC00A81ED040AD0ED210AA99830EEDE
:207C800020BA80ED05BADDED089AF0EE4BAAF4EECB9AF1EE10FA28BF9DED929A4CD29DED2A
:207CA00011FAB4EEEAFAF1EE10FAD8BF9DED9B9A42DDA84890ED2A0B51EC100B09F0D6FB11
:207CC0009DED080A09EE100AB4EEEA0AF1EE10FA32D8B4EEEAFAF1EE10FA2DDB01220223AF
:207CE0000A201118490805EB810C1CED010AB4EEEA0AF1EE10FA9ABF0A464B1C0846984298
:207D0000EFD8501C05EB800106EB800051ED010A05EB820111ED010A70EEC00A3AEEC01A5F
:207D200081EE200A50ED010A06EB820010ED019A70EEC90A00EE209AF0EE4BAA08ADF4EE14
:207D4000EA9A50AEF1EE10FA28BFDDED509A4CD29DED11BAB4EEEABAF1EE10FAD8BFDDED1A
:207D6000599A42DD7B4890ED2A0B51EC100B09F07DFB9DED080A09EE900AB4EEEA0AF1EE11
:207D800010FA32D8B4EEEABAF1EE10FA2DDB012002230A214218520805EB820C1CED010AE1
:207DA000B4EEEA0AF1EE10FA9ABF1046531C11469942EFD8411C05EB810206EB810152EDAB
:207DC000010A05EB800206EB800012ED010A50ED019A70EEC00A3AEEC01A81EE200A51EDD2
:207DE000010A70EEE90A40EE209AA9989DED8B0A8BADD0ED0CAA74AEB4EEEA0AF1EE10FA93
:207E000028BFDDED74FA4CD29DED91BAB4EEEABAF1EE10FAD8BFDDED7AFA42DD4D4890ED1B
:207E20002A0B51EC100B09F021FB9DED8B0A0FEE900AB4EEEA0AF1EE10FA32D8B4EEEABA1B
:207E4000F1EE10FA2DDB0122022307201118490805EB810C1CED010AB4EEEA0AF1EE10FA38
:207E60009ABF0A464B1C08469842EFD8501C05EB800106EB800051ED010A05EB820111EDFB
:207E8000010A70EEC00A3AEEC01A81EE200A50ED010A06EB820050ED01FA70EEEF0A40EE9C
:207EA00020FADDF878079FED2C0A00F58F6180EDF50ADDF87827B3EE0EAA00F5177082ED89
:207EC000F60ADDF8782782EDF70A1E2291ED000AD0ED000ADDF8783730EE600AC0EE0A0A61
:207EE00093EDF50A30EE800A83EDF50AD1ED010A90ED010ADDF8783730EEC00AC0EE0A0A6D
:207F000093EDF60A30EE800A83EDF60A91ED020AD0ED020ADDF878370C3030EE600A2431D9
:207F2000521EC0EE0A0A93EDF70A30EE800A83EDF70ACBD10020014640F20516DDF87827B1
:207F4000331A02EB8303C0F1FC02DDF878C705E0A407002090070020000000000CEB8202BC
:207F600002F58C6503F58C6395E8A05FA3E8A05FD2F880240930491C1A601C29DEDDDDF8D1
:207F80000C0790ED000AA99880ED180ADDF80C0790ED010AA99880ED190ADDF80C0790EDD1
:207FA000020AA99880ED1A0ADDF8100790ED000AA99880ED1B0ADDF8100790ED010AA998E8
:207FC00080ED1C0ADDF8100790ED020AA99880ED1D0ADDF8140790ED000AA99880ED1E0A77
:207FE000DDF8140790ED010AA99880ED1F0ADDF8140790ED020AA99880ED200ADDF878078D
:020000040800F2
:2080000000F67400FCF7DCF88DED730ADDF8780700F50860FCF7D4F8FF4DB0EE401A85ED12
:20802000241ADDF8F40590ED200AD0ED1D1A90ED1E2A80EE01FA9DED730AC1EE800A90EDAE
:20804000210A80EE01BA9DED730AC2EE001A90ED220A90ED1F2A6846C0EE01AA9DED730A7E
:2080600082EE001A2BEE010A0AEEE10A8DED000A2AEEA00A0FEE410A8DED010A2FEE210A14
:208080000BEE600A8DED020AFCF79AF8DDED000A28AA80EE801A8DED001ADDED011A61EEFC
:2080A0000B2AC1EE800ACDED010A9DED022A40EECF2AC2EE001A20EEAA2ACDED021A21EE1F
:2080C0008F0A01EECB2A01EE6A0A8DED672A8DED681A8DED69FA8DED6A0ACDED6B0A8DED45
:2080E0006CBACDED6D2ACDED6E1ACDED6FAADDF8780700F50E7167A8FEF736F812A928A86F
:20810000FCF735F99DED121ADDED131A9DED142A5FED6FAAB0EE6ABA5FED71AAB0EE6AFA39
:208120005FED73AADDF878071E2100F58F6000BF90ED000AC0EE0A0A30EE8BBAD0ED010A2C
:2081400080EE8A0AD0ED020A2430491E30EE0FFA80EE8A0A70EE2AAAEAD1DDF84C07E8B3C0
:20816000012818BF03287CD029E100281CBF0428082860D0DDF8782702EB8002C2ED10FA53
:20818000401C491EF1D1DDF878073EA94030FCF7EEF8DDF87807C0ED25FADDF87807C0EDB5
:2081A00026FADDF87807C0ED27FADDF8540790ED000ADDF8780780ED280ADDF8540790ED26
:2081C000010ADDF8780780ED290ADDF8540790ED020ADDF8780780ED2A0A00E032E09FED74
:2081E0008F0ADDF878078E4B80ED2B0ADDF87807B1EE040A80ED2CFADDF8780780ED2DFA9B
:208200000020512183FB002C4FEAAC02A2EBEC72524202EB820210EB4202DDF8782702EBAB
:2082200080020CBF82ED2E0AC2ED2EFA401C491EE8D1FFF72CBBDDF8782702EB800282EDC8
:2082400010FA9DE7DDF8780780F80242DDF8780780F80342DDF8780780F80442DDF8780709
:2082600000E01EE090ED280AD0ED290A90ED2A1A80ED1F0ADDF87807C0ED200ADDF87807AB
:2082800080ED211ADDF87807C0F85C44DDF8780790F8300000281CBFDDF8780780F830403F
:2082A000ACE095ED200AB4EEEE0AF1EE10FA3FBF95ED210AB4EECE0AF1EE10FA95ED220A47
:2082C0003CBFB4EEEB0AF1EE10FA78D2DDF87807D0F850040A281BD0DDF8781781F802422B
:2082E000DDF8781781F80342DDF8781781F80442411C002803DD0029D8BF6FF00041DDF89F
:208300007807C0F85014DDF87807C0F85C4475E0DDF87817012081F80202DDF8781781F8E2
:208320000302DDF8781781F80402DDF8141791ED000ADDF8781781ED1F0ADDF8141791ED54
:20834000010ADDF8781781ED200ADDF8141791ED020ADDF8781781ED210ADDF86C170870BF
:20836000DDF87807D0F85C14481C002903DD0028D8BF6FF00040DDF87817C1F85C04DDF854
:20838000781791F83010A9B1DDF8781791ED1F0AD1ED200A91ED211A81ED280ADDF878177B
:2083A000C1ED290ADDF8781781ED2A1ADDF8781781F830401E2821D100F0D0BCFFE70228B5
:2083C0003ED0042800F0B182DDF87807C0F85044DDF8780790ED280AD0ED290A90ED2A1AEC
:2083E00080ED1F0ADDF87807C0ED200ADDF8780780ED211ADDF87807C0F85C4419EE900A73
:2084000008498842DDF87807C0F2C28480F80242DDF8780708E00000900700206666663FD5
:20842000676666660000484280F80342DDF8780780F80442DDF87807C0F8584400F0C1BC35
:20844000DDF878070126B4EE000A80F80262DDF8780780F80362DDF8780780F80462A99875
:20846000D0ED100A60EE800A9DEDA30AB4EEE00AF1EE10FA70D8DDF8780790F8A4080028A9
:20848000DDF84007D0ED060A2CD0B6EE000A60EE800AC0ED060ADDF84007D0ED070A60EE7C
:2084A000800AC0ED070ADDF84007D0ED080A20EE800A80ED080A00BFDDF87807B0F8A60809
:2084C000401CB0F5803F81F07384DDF8781780B23228A1F8A60836D3DDF8780790F8A408AC
:2084E00088BB16E0B0EE080AC0EE802AC0ED062ADDF84007D0ED070AC0EE802AC0ED072A3E
:20850000DDF84007D0ED080AC0EE802AC0ED082AD2E7DDF84007D0ED060A9FEDF70AC0EE5C
:20852000802AC0ED062ADDF84007D0ED070AC0EE802AC0ED072ADDF84007D0ED080AC0EEFB
:20854000802AC0ED082ADDF87807B0F8A608462803D0642815D09CE035E0DDF8780790F8C9
:20856000A40878BBDDF87807B7EE000A80ED4C0ADDF8780780ED560ADDF8780780ED600A0A
:20858000CEE0DDF8780790F8A408D8B9DDF8780780F8A468DDF8780790ED280ADDF8F4056B
:2085A00080ED260ADDF8780790ED290ADDF8F40580ED270ADDF8780790ED2A0ADDF8F405DB
:2085C00080ED280A6AE095ED200AB4EEEE0AF1EE10FA3FBFD5ED210AF4EECE0AF1EE10FAF5
:2085E00095ED223A3CBFB4EEEB3AF1EE10FA34D2DDEDA82A12EE900AB0F17C5F2DDAC0EE85
:208600002E2A80EE8E0AC3EE2B0A30EE220A30EE800A10EE100AB0F17F5F1EDADDF8400779
:20862000B6EE000AD0ED060A60EE800AC0ED060ADDF84007D0ED070A60EE800AC0ED070AAA
:20864000DDF84007D0ED080A20EE800A80ED080ADDF87807A0F8A6481BE0DDF8400790EDAA
:20866000060A20EE2F0A80ED060ADDF8400790ED070A20EE2F0A80ED070ADDF8400790ED1E
:20868000080A20EE2F0A80ED080ADDF87807A0F8A648DDF8780790F8A408E0B3B0EE000A65
:2086A000684661EE000ACDED000A61EE800A22EE000ACDED010A8DED020AFBF781FD10EE43
:2086C000100A8E4988426EDC53EC182B51EC1D0B08F09CFEDDF878070ABFD0F85004C0F82B
:2086E000504432287DD0DDF8780780F80242DDF8780780F80342DDF8780780F80442DDF837
:208700007807D0F85014481C002940F3B982002800F3B68200E003E06FF0004000F0B0BAA4
:20872000DDF8780790F8300038B39DEDA80A10EE100AB0F1804F20DADDF87807D0F8C403A1
:20874000B0F1814F19DADDF8780790EDF50AD0EDF60A90EDF71A80ED1F0ADDF87807C0ED03
:20876000200ADDF8780780ED211ADDF86C070670DDF8780780F8304040E6DDF87807D0F897
:2087800054041E2810D0411C002803DD0029D8BF6FF00041DDF87807C0F85414DDF87807CE
:2087A000C0F85C442AE6ABE0DDF87807B0F8A60828281DD3DDF8140790ED000ADDF8780711
:2087C00080ED1F0ADDF8140790ED010ADDF8780780ED200ADDF8140790ED020ADDF87807D3
:2087E00000E02CE080ED210ADDF86C07067014E0DDF8780790EDF50AD0EDF60A90EDF71A28
:2088000080ED1F0ADDF87807C0ED200ADDF8780780ED211ADDF86C070670DDF87807C0F8D1
:208820005C64DDF87807B0F8A808401CB0F5803F81F0C282DDF87817A1F8A808DEE5DDF812
:208840004007B1EE040AD0ED060A80EE801A80ED061ADDF8780780F80262DDF84007D0EDB9
:20886000070A80EE801A80ED071ADDF8780780F80362DDF84007D0ED080A80EE801A80EDC0
:20888000081ADDF8780780F80462DDF87807D0F85C04B0F57A7F17D1DDF8781791ED280A6E
:2088A000DDF8F41581ED260ADDF8781791ED290ADDF8F41581ED270ADDF8781791ED2A0A94
:2088C000DDF8F41581ED280A411C002803DD0029D8BF6FF00041DDF87807C0F85C14DDF804
:2088E000780780ED28BADDF8780780ED29FADDF87807C0ED2AAA81E55555D53F0AD7A33B0E
:20890000DDF87807C0F85044DDF8780780F80242DDF8780780F80342DDF8780780F8044284
:20892000DDF87807C0F85C4468E5FE482B7990ED950A90ED962AD0ED970A90ED981AD0EDB1
:20894000991AF948052B00F13C0135D2DDF8102792ED000A03EB430200EB820080ED000A12
:20896000DDF810C79CED010A80ED010ADDF810C79CED020A80ED020ADDF8140790ED000A0E
:2089800001EB820080ED000ADDF8141791ED010A80ED010ADDF8141791ED020A80ED020AEE
:2089A000581C2871DDF86C0704700DF5D36D04F04FB910B004F043B9D0ED032AC0ED002A3F
:2089C00090ED04FA60EE222A80ED01FAD0ED05DAC0ED02DAD1ED034AC1ED004ACDEDB34A3B
:2089E00091ED044A81ED014A8DEDB24AD1ED053AC1ED023ACDEDB13A90ED06DA80ED03DA49
:208A000090ED07BA80ED04BA90ED085A80ED055A8DEDAF5AD1ED064AC1ED034ACDEDAE4A04
:208A200091ED074A81ED044A8DEDAD4AD1ED083AC1ED053ACDEDAC3AD0ED09FAC0ED06FA40
:208A4000D0ED0AAAC0ED07AA90ED0B5A80ED085A8DEDAA5AD1ED094AC1ED064ACDEDA84A5D
:208A600091ED0A4A81ED074A8DEDA74AD1ED0B3AC1ED083ACDEDA63A90ED0CAA80ED09AA1A
:208A8000D0ED0D7AC0ED0A7A90ED0E7A80ED0B7AD1ED0C6AC1ED096A91ED0D6A81ED0A6A3E
:208AA000D1ED0E3AC1ED0B3ACDED893ADDF81027D2ED005AC0ED0C5A92ED015A80ED0D5A5A
:208AC000D2ED024AC0ED0E4ADDF8140790ED004A81ED0C4AD0ED013AC1ED0D3A90ED023A65
:208AE00081ED0E3A42EE0D2A904840EEAF2A41EE0A2A41EEA52AC0ED002A60EE0F2A42EE8B
:208B00000B2A40EEAA2A41EE272A41EE852AC0ED012A60EE2D2A9DEDAF5A42EE052A9DEDC7
:208B2000AA5A40EE852A41EE072A41EEA42AC0ED022ADDEDB34A0C3060EE242ADDEDAE4ABD
:208B400042EE242ADDEDA84A40EEA42A41EE262A41EE842AC0ED002A9DEDB24A60EE042AAA
:208B60009DEDAD4A42EE042A9DEDA74A40EE842A41EE062A41EEA32AC0ED012ADDEDB13AD7
:208B800020EE230ADDEDAC3A02EE230ADDEDA63A00EEA30ADDED893A01EE230A01EE830A63
:208BA00080ED020A0C38FBF70BFBB0EE40AA6048FBF706FBB4EECAEAF1EE10FA7FF71EAC5E
:208BC000B4EEEB0AF1EE10FABFF418ACDDF8140790ED000A5748B0EEC00A10EE101A814235
:208BE000BFF60CACDDF8141791ED010AB0EEC00A10EE101A8142BFF601ACDDF8141791ED4C
:208C0000020AB0EEC00A10EE101A8142BFF6F6ABDDF8100790ED000A4748B0EEC00A10EE37
:208C2000101A8842FFF6EAABDDF8101791ED010AB0EEC00A10EE101A8842FFF6DFABDDF883
:208C4000101791ED020AB0EEC00A10EE101A8842FFF6D4ABDDF87807D0F850140A2919D0F9
:208C600080F80242DDF8780780F80342DDF8780780F80442481C002902DD00287FF74AAD14
:208C8000DDF87817C1F85004DDF87807C0F85C44FFF7B4BBDDF87817012081F80202DDF87B
:208CA000781781F80302DDF8781781F80402DDF8141791ED000ADDF8781781ED1F0ADDF86C
:208CC000141791ED010ADDF8781781ED200ADDF8141791ED020ADDF8781781ED210ADDF888
:208CE0006C170870DDF87807D0F85C14481C002903DD0028D8BF6FF00040DDF87817C1F805
:208D00005C04DDF8781791F8301019B3DDF8781791ED1F0AD1ED200A91ED211A81ED280AAE
:208D20000CE0000000480208704B0020584B0020644B00200000C8413333B33FDDF87817C3
:208D4000C1ED290ADDF8781781ED2A1ADDF8781781F830401E287FF451AB00BFDDF8780707
:208D600090ED280ADDF8F40580ED260ADDF8780790ED290ADDF8F40580ED270ADDF8780715
:208D800090ED2A0ADDF8F40580ED280AFFF736BBD0F85814322914DA80F80242DDF8780741
:208DA00080F80342DDF8780780F80442481C002903DD0028D8BF6FF00040DDF87817C1F8FC
:208DC0005804DDF84007B7EE00AA90ED060A79EE0A0A20EE290A80ED060ADDF8400790ED6D
:208DE000070A20EE290A80ED070ADDF8400790ED080A20EE290AF0EE009A80ED080A89EE49
:208E0000A00A10EE100AFE498842C0F2D98700BFDDF84007D0ED000AA99890ED111A60EE94
:208E2000810A90ED0F1ADDF8400760EE810AC0ED000ADDF84007D0ED010AA99890ED111A88
:208E400060EE810A90ED0F1ADDF8400760EE810AC0ED010ADDF84007D0ED020AA99890ED43
:208E6000111A60EE810A90ED0F1ADDF8400760EE810AC0ED020ADDF84007D0ED030AA99873
:208E800090ED131ADDF8400760EE810AC0ED030ADDF84007D0ED040AA99890ED131ADDF8D2
:208EA000400760EE810AC0ED040ADDF84007D0ED050AA99890ED131ADDF8400760EE810A0F
:208EC000C0ED050ADDF84007D0ED090A60EEA90A60EE890AC0ED090ADDF84407D0ED060A5B
:208EE00060EE800AC0ED060ADDF84007D0ED0A0A60EEA90A60EE890AC0ED0A0ADDF844072D
:208F0000D0ED070A60EE800AC0ED070ADDF84007D0ED0B0AA99890ED121ADDF8400760EEAB
:208F2000810AC0ED0B0ADDF84807E0B3DDF84007D0ED030A60EE890AC0ED030ADDF844078C
:208F4000D0ED000A60EE800AC0ED000ADDF84007D0ED040A60EE890AC0ED040ADDF8440718
:208F6000D0ED010A60EE800AC0ED010ADDF84007D0ED050A60EE890AC0ED050ADDF84407F4
:208F8000D0ED020A60EE800AC0ED020ADDF84007D0ED0A0A60EEA90A60EE890AC0ED0A0AE7
:208FA000DDF8440700E005E0D0ED070A20EE800A80ED070A0021DDF844070926DDF8782704
:208FC00001EB810302EBC302B0EC010AD2ED2E0A491C761E40EE000AC2ED2E0AEED19FED6E
:208FE000899A8DED679A9DED9F0AB1EE400A8DED6A0A9DEDA00A8DED6D0A9DED9F0A8DEDF7
:20900000680A8DED6B9A9DEDA10AB1EE400A8DED6E0A9DEDA00AB1EE400A8DED690A9DEDBB
:20902000A10A8DED6C0A8DED6F9A8DED7B9A9DED9E0AB1EE400A8DED7E0A9DED9D0A8DEDBB
:20904000810A9DED9E0A8DED7C0A8DED7F9A9DED9C0AB1EE400A8DED820A9DED9D0AB1EED1
:20906000400A8DED7D0A9DED9C0A8DED800A8DED839ADDF850070178DDF8780780F8FC115C
:20908000DDF850070178DDF8780780F8FD11DDF850070178DDF8780780F8FE11DDF85007A5
:2090A0004178DDF8780780F8FF11DDF850074178DDF8780780F80012DDF850074178DDF89E
:2090C000780780F80112DDF8480710B3DDF850074078F0B1A9984069B0F17E5F0CDDDDF8F4
:2090E000780780F8FF41DDF8780780F80042DDF8780780F801420CE0DDF87817012081F832
:20910000FF01DDF8781781F80002DDF8781781F80102A9989DEDA30AD0ED100AF4EEC00A95
:20912000F1EE10FA1BDB53EC182B51EC1C0B08F085F914D2DDF8780780F8FC41DDF87807B1
:2091400080F8FD41DDF8780780F8FE41DDF8780780F80542DDF8780780F807422AE0DDF847
:209160005007007860B1DDF87817012081F8FC01DDF8781781F8FD01DDF8781781F8FE015D
:20918000DDF85007407860B1DDF87817012081F8FF01DDF8781781F80002DDF8781781F820
:2091A0000102DDF87817012081F80502DDF8781781F80702DDF87807134FDFF8508090EDE7
:2091C000240A10EE100A3844404513D3DDF8780780F8FC41DDF8780780F8FD41DDF87807FB
:2091E00080F8FE41DDF8780780F80542DDF8780780F80742DDF8400730EE4A0A08E000001A
:209200000AD7233C000000003333B3C13433F301B0EEC00AD0F8009010EE100A08F0E2F82F
:2092200041EC1D0B484608F0DDF841EC100BB0EE4D1AF0EE6D1A18F047F851EC100B08F035
:2092400015F9DDF840170860DDF840174860DDF840178860DDF8780790ED230A10EE100A6E
:209260003844404514D3DDF8780780F8FF41DDF8780780F80042DDF8780780F80142DDF808
:20928000780780F80542DDF8780780F8064245E0DDF8400770EE4AAA806A08F0A3F841EC3F
:2092A0001D0BB0EEEA0A10EE100A08F09BF841EC100BB0EE4D1AF0EE6D1A18F005F851EC5D
:2092C000100B08F0D3F8DDF840172AEEAA0A8862DDF8400790ED031A61EE010AF4EEC00A12
:2092E000F1EE10FA1AD210EE100AB0F17E5F15DD61EE000ADDF84007C0ED030ADDF84007C6
:20930000D0ED040A60EE800AC0ED040ADDF84007D0ED050A20EE800A80ED050A95ED230A44
:2093200010EE100AB0F17C5FDDF8780735DD80F8FC41DDF87807F0EE690A80F8FD41DDF84E
:20934000780740EE290A80F8FE41DDF8400790ED091A21EE201A80ED091ADDF8400790ED48
:209360000B1A61EE200AC0ED0B0A10EE100AFE49884207DDDDF8780780F80542DDF8780719
:2093800080F80742DDF8780790F8AE080F283CBF401DDDF878177BD219E090F8AE08C8B18A
:2093A000DDF87817401E81F8FC41DDF8781781F8FD41DDF8781781F8FE41DDF8781781F821
:2093C0000542DDF8781781F80742DDF8781781F8AE08B1E0DDF87807D0F8B0089FEDE4DBDD
:2093E00050B1A999E44A8969914205DB411EDDF87807C0F8B0189FE01EEE100A07F0F2FF97
:2094000053EC1D2B07F0D3FE41EC1F0BD5F8840007F0E8FF53EC1F2B07F0F8FF38D21BEEED
:20942000900A07F0DFFF53EC1D2B07F0C0FE41EC1B0BD5F8880007F0D5FF53EC1B2B07F092
:20944000E5FF79D21EEE900A07F0CCFF9FEDCC1B53EC112B07F0ABFE41EC1B0BD5F8800047
:2094600007F0C0FF53EC1B2B07F0E8FFDDF8780725D280F8FC41DDF8780780F8FD41DDF8F4
:20948000780780F8FE41DDF8780780F8054200E052E0DDF8780780F80742DDF8780790F880
:2094A000AD080F2823BF6421DDF87807C0F8B018C01C3CBFDDF8781781F8AD083CE090F878
:2094C000AD0828B1DDF87817401E81F8AD0804E0DDF87807D0F8B008A0B1DDF8780780F839
:2094E000FC41DDF8780780F8FD41DDF8780780F8FE41DDF8780780F80542DDF8780780F83B
:20950000074219E0DDF84007B1EE000AD0ED000A60EE800AC0ED000ADDF84007D0ED010A0A
:2095200060EE800AC0ED010ADDF84007D0ED020A20EE800A80ED020ADDF840079249B0E816
:20954000BC13A1E8BC1390E80D1081E80D10DDF878078E4C9030C8AD729028AA10468DEDC2
:20956000289A042180ED019A80ED029A0830491EF8D1032E15DA67A800EB860090ED000A64
:2095800020EE290A8DED280A90ED030A20EE290A8DED290A90ED060A20EE290A8DED2A0AEA
:2095A0001BE0062EA4BF02EB860000ED03AA14DA7BA800EB860010ED030A20EE290A8DEDC5
:2095C000280A90ED000A20EE290A8DED290A90ED030A20EE290A8DED2A0ADDF878073044A3
:2095E00090F8FC0100287AD00DF17C094F468DED1F9A042187ED019A87ED029A491E07F186
:209600000807F7D1002328A8092209EB810C00BF03EBC307DDF878870F4408EB87079CED2C
:20962000000AD7ED2E0AF5EEC00AF1EE10FA1FBF90ED001AB5EEC01AF1EE10FA00EE810A3A
:209640008CED000A001D521E03F10103E0D1491C0929D7DBDDED280AB0EE490A27A8F5EE69
:20966000C00AA9F10401F1EE10FA1FBF9DED1F1AB5EEC01AF1EE10FA00EE810A0422001DD5
:2096800011F10401D0ED010AF5EEC00AF1EE10FA1FBF91ED011AB5EEC01AF1EE10FA00EE9A
:2096A000810AD0ED020AF5EEC00AF1EE10FA1FBF91ED021AB5EEC01AF1EE10FA00EE810A69
:2096C00008300831521EDDD1DDF84007F0EE400A00EB860090ED000A40EE000A00E090E136
:2096E0008AEE200A9DED1F1AA9F1040015A90422D0ED020A21EE001A60EE800A81ED011A30
:2097000090ED031AC1ED020A08300831521EEFD1DDED270A052E20EE800A8DED1E0A57DDB8
:209720009DED281AB0EE490A7299B5EEC01A27A8F1EE10FA1FBFD1ED010AF5EEC00AF1EEF9
:2097400010FA01EE200A0422001D091D90ED011AB5EEC01AF1EE10FA1EBFD1ED010AF5EEF6
:20976000C00AF1EE10FA13E00000404000000000000000000000F83F9A99993E0000000082
:209780000000000000000040F85300206766666618BF01EE200AD0ED020AF5EEC00AF1EE40
:2097A00010FA1FBF91ED021AB5EEC01AF1EE10FA00EE810A08300831521EC7D1DDF878077B
:2097C00000EB8600D0ED190A30EEC00A80ED190A4FF4A271C8A807F004FC16AF0DF1A00C94
:2097E0005FF00002D7ED000A0CEB820002EBC20190ED000A05EB8101F5EEC00A381F091FFC
:20980000F1EE10FA1CBFB5EEC00AF1EE10FA05D091ED011A00EE801A81ED011A0423001D6B
:2098200011F10401D0ED010AF5EEC00AF1EE10FA1CBFB5EEC00AF1EE10FA05D091ED011A24
:2098400000EE801A81ED011AD0ED020AF5EEC00AF1EE10FA1CBFB5EEC00AF1EE10FA05D092
:2098600091ED021A00EE801A81ED021A083008315B1ED7D1521C092AB4DBDDF87827C8A896
:2098800002F1B8030DF2644100224FF0510C00BF84FB02874FEAA708A8EBE7777F4207EB65
:2098A000870790ED000A12EB47070CBF3AEE400AB1EE400AA0EC010A521CB3EC010ABCF1C6
:2098C000010CA1EC010AE3D1DDF878074FF4A271B83007F086FB0027C8A800220DF2644ABF
:2098E000904600EB870900BF99ED000A0AEB8201091FB5EEC00AA9F12400F1EE10FA1EBF37
:20990000D1ED010AF5EEC00AF1EE10FA0BD0DDF8783702EB070C03EB8C0393ED2E1A00EE56
:20992000201A83ED2E1AD319DDF878B724304FF0040C0BEB8303091D90ED091AB5EEC01AE3
:20994000F1EE10FA1EBF91ED010AB5EEC00AF1EE10FA05D0D3ED2E0A41EE000AC3ED2E0A74
:20996000D0ED120AF5EEC00AF1EE10FA1EBF91ED020AB5EEC00AF1EE10FA05D093ED2E1A1E
:2099800000EE801A83ED2E1A48300831BCF1010CD2D1093208F10108B8F1090FA4DB7F1C61
:2099A000092F99DBDDF878071FA900EB86005FF0090290ED191A16A8B0EE490AF0EC010ACE
:2099C000F5EEC00AF1EE10FA1EBFB5EEC01AF1EE10FA00EE810AA1EC010A521EECD1002050
:2099E0001FA90923DDF8782702EB8002F1EC010A92ED250A401C5B1E30EE200A82ED250A3F
:209A0000F0D1761C0C2EFFF6A8ADDDF87807B0EE490AD0ED259ADDF87C06D0ED240ADDF897
:209A2000780709EEA00A90ED26BAD0ED27AA0BEE0B0A0AEEAA0A3AEE400AB5EEC00AF1EEA3
:209A400010FAD8BFB0EE490A10EE100A07F0CAFC41EC100B18F074FB51EC100B07F006FD8E
:209A60000446DDF8780790F8310020B9DDF8780790F83000C0B18DED3E9ADDF85C0780ED42
:209A8000009A8DED3F9ADDF85C0780ED019A8DED409ADDF85C0780ED029A8DED41AADDF8CA
:209AA0005C0780ED03AA7FE0DDF850078078E8B3A9989DEDA30AD0ED100AF4EEC00AF1EE31
:209AC00010FA05DB53EC182B51EC1C0B07F0B6FCB1EE698A8DED048AB1EE4B9A8DED059AD6
:209AE000F1EE6A8ACDED068A3EAD079495E80F0012AD85E80F003EAA12A904A8FCF7C2FAFE
:209B00008DED128A8DED139ACDED148A18EE103A15948DED048A8DED059A19EE101A18EE5F
:209B2000902ACDED068A00EE103A00E0B3E000EE901A20EE000A079460EEA01A00EE902A7B
:209B400020EEA01A31EE800A00EE904A60EEA00A31EE000A30EE800A10EE100A07F042FCB6
:209B600041EC100B18F0ECFA51EC100B07F07EFC00EE100A9DED041ADDED072ADDF85C0703
:209B8000C1EE000A9DED051A81EE002A9DED061AC0ED000AC1EE001A80ED012A82EE801AFE
:209BA000C0ED021A80ED031ADDF8780700F140013EA8FAF725FB3EAC94E80F0000EE901AC8
:209BC00000EE100A01EE903A20EEA01A20EE000A00EE902A61EEA11A12AC60EEA00A31EE5D
:209BE000000A84E80F0030EE800A31EE800A10EE100A07F0F7FB41EC100B18F0A1FA51EC66
:209C0000100B07F033FC00EE100ADDED120A80EE801A8DED3E1ADDED130A80EE801A8DEDD2
:209C20003F1ADDED140A80EE801A8DED401ADDED150A80EE801A8DED411ADDE93E12DDF856
:209C4000580711EE10CA409B80E80E10DDF8780700F50E7100F5057891E8FE1088E8FE102C
:209C6000D0F85812C0F83412DDF87807DDF8642700F19401092000BFB1EC010A401EA2ECFE
:209C8000010AF9D1A99890ED010ADDF8600780ED000AFEF78ABEB1EE698A8DED048AF1EEBD
:209CA0004B8ACDED058AB1EE6A9A8DED069A3EAD079495E80F0012AD85E80F003EAA12A9D9
:209CC00004A8FCF7DFF918EE901A18EE100A19EE102A00EE901A00EE100A8DED128A60EEF8
:209CE000A01A20EE000A00EE902ACDED138A8DED149A20EEA01A31EE800A00EE904A159489
:209D00008DED048A60EEA00A31EE000ACDED058A8DED069A079430EE800A10EE100A07F065
:209D200061FB41EC100B18F00BFA51EC100B07F09DFB01EE100A9DED040ADDED072ADDF81A
:209D40005C07C0EE011A9DED050A80EE012A9DED060AC0ED001AC0EE010A80ED012A82EE83
:209D6000810AC0ED020A80ED030A1DE71F23FDF77BB9BDF6C2A96718521C0EEB020817F89A
:209D8000017C491C08F8017C9942F4DBFDF7B5B9BDF6B3A92718521C0EEB020817F8017C0D
:209DA000401C08F8017C6045F4DBFDF7A6B900BF4FF6FF70FEF789BB4FF6FF70FEF73ABDB7
:209DC0009FEDFD0AFFF724B82DE9FF5FFB4888462DED100B1E462DED108BAAB0B0EE669A53
:209DE000F0EE469AB0EE62AAF0EE42AA90ED9ADAD0ED9BCA90ED9CCAD0ED9DBA90ED9EBA52
:209E0000D0ED9F8ADDF894B1DDF86CA1DDF87C91619F699D589C51EC130B07F027FB08EE1A
:209E2000100A95F8CC08DFEDE6FA20B9012085F8CC08C5ED00FADDED3A0A9FEDE21A81EEFF
:209E4000200A10EE100A07F0CDFA41EC100B18F077F951EC100B07F009FB00EE100AD6ED24
:209E6000000ACDEE00EA2CEE80EA6CEE00DA2BEE80DA6BEE00CA28EE80CA9FEDD30A60EECE
:209E8000800AC6ED000AD6ED010A60EE800AC6ED010AD6ED020A20EE800A86ED020A9FEDA5
:209EA000CCBB9FEDCD0BF6EE008A9FEDCD1AB7EE00FABAF1050F29D2DFE80AF003141D2860
:209EC0003500F0EE4A0AB2EE040AF0EE4F8A80EE80AAF0EE690AC0EE809AF0EE490A80EE66
:209EE000809A26E0F0EE4F8A28EE0AAA68EE299A28EE099A19E0F1EE048A28EE0AAA68EE69
:209F0000299A28EE099A9FEDB8BB12E028EE0A0A20EE01AA28EE290A60EE019A28EE090A96
:209F200020EE019A05E0F0EE4F8AB0EE40BAF0EE60BA9FEDAF0B53EC102B9DED420B51EC78
:209F4000100B07F063FA0BD195ED000AB5EEC00AF1EE10FA27DD10EE100AA749814222DD06
:209F600095ED000AB3EE041AA44970EE0F0AC5ED000A80EE810A10EE100A8842C0F2038165
:209F8000CFEE000A2EEE001A6DEE802A2AEE800A2DEE283A2CEE804A60EEAE0A9FED980A88
:209FA0006CEE004A1BE09DED3D0ADFED960A2DEE283A2CEEAA4A30EE200ACFEE000A9DEDA1
:209FC0003C0A2EEE001A9DED3B0AC5ED00FA6DEE802A9FED8B0A6CEE004A60EEAE0A98ED35
:209FE000000AD4ED091A94ED0B2A51EC1B0B70EE613A98ED010AD4ED0A1A70EE611A98ED8E
:020000040800F2
:20A00000020A30EE422AB0EE6F0A8DED240A94ED005A05EE230A94ED035A05EE210A94ED73
:20A02000065A05EE020A8DED240AB0EE6F0A8DED250A94ED015A05EE230A8DED250A94ED33
:20A04000045A05EE210A8DED250A94ED075A05EE020A8DED250ACDED26FA94ED020A40EEBC
:20A0600023FACDED26FA94ED050A40EE21FACDED26FA94ED080A40EE02FAB7EE080A2AEEAA
:20A08000800ACDED26FA8DED181A8DED191A8DED1A1ACDED1B2ACDED1C2ACDED1D2A8DEDDB
:20A0A0001E3A8DED1F3A8DED203A8DED214ACDED224A8DED230ACDED0F0ACDED100ACDED8E
:20A0C000110A07F0D3F9129013909FED4F0A14908DED150A9FED380A8DED160A9FED4B0AF2
:20A0E000B0EE482A8DED170A5C988DF89C005D988DF89D005E988DF89E00DDE96712012010
:20A10000CDE90C200B9166980E956099CDE9097028AACDE90712599827A9CDE904105A9AD8
:20A12000CDF818900FA918A8CDE900010292CDF80CA09DED485B9DED444B9DED423BDDED67
:20A140003A1AB0EE491AF0EE690AB0EE4A0A334624A94C9A4A98FCF7FEF948460FA9FAF738
:20A160004FF897ED030A8BED000A97ED040A8BED010A97ED050A8BED020A2AB002F06EBD62
:20A1800014B002F05CBD9FED220AF9E691F90030D2ED000A00EE103A91F9013092ED011A49
:20A1A000B8EEC00A20EE200A00EE903AF8EEE00A00EE810A2EE000000AD7233C0048020856
:20A1C000000000006F12033C35FA8E3C00000000FCA9F1D24D62503FFA7E6ABC7493583FE4
:20A1E0000000C84200000000F168E388B5F8E43E00000000000000000000A041CDCC4C3EBE
:20A200003333333FBD378635A69B443B52499D3ACDCC4C3E91F9023092ED021A00EE903A53
:20A22000F8EEE00A00EE810A80ED000A91F90330D2ED000A00EE103A91F9043092ED011A48
:20A24000B8EEC00A20EE200A00EE903A91F90530F8EEE00A00EE810A00EE903A92ED021A43
:20A26000F8EEE00A00EE810A80ED010A91F90630D2ED000A00EE103A91F9073092ED011A01
:20A28000B8EEC00A91F9081020EE200A00EE903AF8EEE00A00EE810A00EE901A92ED021A40
:20A2A000F8EEE00A00EE810A80ED020A70472DE9F04389B00446002A08BF04AAD1ED030AEF
:20A2C000FE4B03F51270C3ED060AD1ED000A03F1F80CC3ED030AD1ED060A03F55075C3ED43
:20A2E000090AD1ED030AC0ED060AD1ED000AC0ED030AD1ED060AC0ED090AD1ED040AC3ED37
:20A30000070AD1ED010AC3ED040AD1ED070AC3ED0A0AD1ED040AC0ED070AD1ED010AC0ED12
:20A32000040AD1ED070AC0ED0A0AD1ED050AC3ED080AD1ED020AC3ED050AD1ED080AC3EDE7
:20A340000B0AD1ED050AC0ED080AD1ED020AC0ED050AD1ED080ADA49C0ED0B0A886A002807
:20A360007ED09CF8500010F0010F04BF95F8500010F0010F74D0086D00260028C4BF401E03
:20A3800008656DDCCE48CF6F436D581C002F4FD000EE903A91ED121ADFF82883F8EEE00A8D
:20A3A00061EE201A00EE900AF8EEE00A81EEA01A00EE900AD8ED011AF8EEE00A81EEA02A22
:20A3C00071EE020AC1ED120A00EE903A91ED111AF8EEE00A61EE201A00EE900AF8EEE00A36
:20A3E00081EEA01A00EE900AD8ED021AF8EEE00A81EEA02A71EE020AC1ED110A00EE903AD6
:20A4000091ED131AF8EEE00A61EE201A00EE900AF8EEE00A81EEA01A00EE900AD8ED031A4D
:20A42000F8EEE00A81EEA02A71EE020AC1ED130AD1F87880B8F1000F37D000EE903A91ED27
:20A44000111ADFF88492F8EEE00A61EE201A00EE900AF8EEE00A81EEA01AD9ED021A00E048
:20A4600055E000EE900AF8EEE00A81EEA02A71EE020AC1ED110A00EE903A91ED131AF8EE99
:20A48000E00A61EE201A00EE900AF8EEE00A81EEA01A00EE900AD9ED031AF8EEE00A81EE1E
:20A4A000A02A71EE020AC1ED130A4865B0F5FA7F2DD1F6EE000A8FB191ED111A21EE201AB3
:20A4C0008CED111A91ED131A21EE201A8CED121A91ED121A21EE201A8CED101AB8F1000FF1
:20A4E0000BD091ED111A21EE201A85ED111A91ED131A61EE200AC5ED120A5FEDCF0AC1ED2D
:20A50000120AC1ED110AC1ED130A4E658E62CDF800C0CDE901526D4BA3F5127202F56571B9
:20A52000A1F5127001F01FF9694804F15402A0F5127190ED060A84ED110A91ED060A84EDCE
:20A54000030A90ED070A84ED120A91ED070A84ED040A90ED080A84ED130A91ED080A84EDA7
:20A56000050A90ED090A84ED140A91ED090A84ED060A90ED030A84ED0E0A90ED250A84ED6B
:20A58000150A90ED280A84ED180A91ED030A84ED000A91ED250A84ED070A91ED280A84ED04
:20A5A0000A0A90ED040A84ED0F0A90ED260A84ED160A90ED290A84ED190A91ED040A84EDF3
:20A5C000010A91ED260A84ED080A91ED290A84ED0B0A90ED050A84ED100A90ED270A84EDD2
:20A5E000170A90ED2A0A04F1440084ED1A0A91ED050A84ED020A91ED270A84ED090A91ED00
:20A600002A0A04F1380184ED0C0AFAF7E6FD84ED1B0A04F11C02214604F10C00FAF7DDFDA1
:20A6200084ED0D0A09B0BDE8F08370B50D462DED068BB0EE00AA0446D0ED009A90ED011A1D
:20A64000D0ED021A69EEA90A61EE018A29EE811A90ED030A21EEA18A70EEE80A01EE801AEE
:20A6600020EE009A70EEC80A21EE0A0A70EE890A01F02BFC85ED000A94ED000AD4ED020A02
:20A6800094ED031A20EE200AD4ED010A00EEC10AF8EE000A20EE200A10EE100A06F0A2FE89
:20A6A00041EC100B16F050F951EC100B06F0DEFE686094ED010AD4ED020A0BE0304F00202E
:20A6C00090070020580C00202815002078510020C452002020EE200AD4ED000A94ED031A22
:20A6E00000EE810A69EEE90A70EEE80A20EE0A0A70EE880A70EE890A01F0E7FB85ED020AF3
:20A70000BDEC068B70BD2DE9F0430F462DED0C8B89B01E46154604466946DDE91C8990EDAA
:20A72000000AB1EE400A80ED000A90ED010AB1EE400A80ED010A90ED020AB1EE400A80EDE7
:20A74000020AF9F75DFDB0EE008AB9F1000F03D0B9F1010F64D0F6E09DED060A86ED000A14
:20A760009DED070A86ED010A9DED080A86ED020A94ED00AA94ED010AD4ED021A6AEE0A0AA5
:20A7800060EE009A2AEE000A94ED031A61EEA18A70EEE90A01EE810A21EE019A70EEE80AD2
:20A7A00020EE080A70EE890A01F08FFB85ED000A94ED000AD4ED020A94ED031A20EE200A63
:20A7C000D4ED010A00EEC10AF8EE000A20EE200A10EE100A06F006FE41EC100B16F0B4F8C0
:20A7E00051EC100B06F042FE686094ED010AD4ED020A94ED031A20EE200AD4ED000A00EE1B
:20A80000810A6AEE4A0A70EEE90A20EE080A70EEA80A70EE890A01F058FB85ED020A92E05B
:20A820009DED070AB7EE009A86ED000A9DED060AF0EE498A86ED010A9DED080AB1EE400A73
:20A8400086ED020A94ED02DA94ED00AAD4ED019A2DEE0D0A2AEE0ACAF1EE4DCAD4ED03AA13
:20A8600040EE488A69EEA9DA4CEE488A18EE900A06F0B8FD2AEECD0A41EC1B0B0AEE290A3A
:20A8800020EE080A10EE100A06F0ACFD41EC100BB0EE4B1AF0EE6B1A16F086FB51EC100B54
:20A8A00006F0E4FD0CEE489A00EE100AB1EE400A85ED000A0DEEC89A19EE100A06F092FD75
:20A8C0002DEE4A0A41EC1B0B09EEAA0A20EE080A10EE100A06F086FD41EC100BB0EE4B1A0F
:20A8E000F0EE6B1A16F060FB51EC100B06F0BEFD00EE100AB1EE400A85ED010A2AEE2A0AD1
:20A900000CEEE90A20EE080A10EE100A06F06AFD41EC100B16F018F851EC100B06F0A6FD66
